:020000040800F2
:1000000008050020C500000865180008E115000873
:1000100000000000000000000000000000000000E0
:10002000000000000000000000000000AF18000801
:100030000000000000000000AD180008F1180008E2
:10004000D700000800000000D7000008D700000813
:10005000D7000008D7000008D7000008D700000824
:1000600000000000D7000008D7000008D7000008F3
:10007000D7000008D7000008D700000800000000E3
:10008000D70000080000000000000000D7000008B2
:1000900000000000D7000008D7000008D7000008C3
:1000A00000000000D7000008000000008B1E0008C0
:1000B0000348854600F0DEFA00480047411F00086B
:1000C000080500200448804704480047FEE7FEE793
:1000D000FEE7FEE7FEE7FEE75D190008B100000855
:1000E00030B50B46014600202022012409E00D46D0
:1000F000D5409D4205D31D469540491B2546954058
:1001000040191546521E002DF1DC30BD10B5202AD5
:1001100004DB0846203AD040002110BD0B46D340F6
:10012000D0402024A21A91400843194610BDD2B2F3
:1001300001E00270401C491EFBD270470022F6E726
:1001400010B513460A4604461946FFF7F0FF20464D
:1001500010BD0000F0B507460846584087B0C00FF4
:10016000049048000E46590040084908BC1A8841CE
:1001700005D2384631461E4617460B460246580001
:10018000400810434CD0300D039040055900400DFD
:10019000490D0590401A0290402872DA1803012197
:1001A000000B09050843019004980092002805D02F
:1001B000019952420020884100920190029840210A
:1001C0000A1A0199009800F091F905460C466B4611
:1001D00007CB00F09BF9C0197141039A0E0D002363
:1001E000D71756401A467A40164344D0049A002A3C
:1001F0002DD0029A012A039A15DC1205C01A9141EA
:1002000001263605001C7141D20F059ED2070093CE
:10021000019202962A46234600F0D9F907B0F0BDB4
:1002200038463146FAE71605224A0F46B218C01A78
:10023000B74101210905001C4F4100187F411146BB
:1002400018187941E20F10436D19644113E0E20779
:100250006D0815436408C2071443039A012612056A
:10026000C01A91413605001C7141CE074008304349
:100270004908C01851412A46234600F09BF9CDE7B2
:10028000FFE7049801224000C117121A00238B4196
:1002900004983146C417381AA141EEE730B401245E
:1002A000E407634030BC55E730B40124E407614003
:1002B00030BC4FE70000E0FFF0B51FB488B00B99E9
:1002C0000998002448400999C00F4900490809913C
:1002D000C0070B990090490049080B9109990898AB
:1002E000A64608431CD00B990A98084318D00998D1
:1002F00001244000420D4800410D099824050003E7
:10030000000B204309900B980003000B20430B9037
:1003100050181C494018002201901446104605E070
:10032000002001460DB0F0BD032801DA034600E0CD
:1003300003239C46C11A0AAE0AE05F0008ADED5BDC
:100340004F00F75B7D430027AA187C41491C5B1EC8
:100350006145F2DD410004AB5A522104120C0A43FC
:10036000240C401C0828DFDB01980290009970469D
:1003700001910090059B049A0799069800F027F9CF
:10038000D0E700000DFCFFFFF0B50C465C4085B0E7
:10039000E40FE40703944C000026640859009446D7
:1003A000490802460296224321D062460A431ED0E3
:1003B0006200570D4A000E032303550D0124024627
:1003C0002C492405781B1B0B360B4018234326436E
:1003D000614600901C46501AB44103D30098401C5B
:1003E000009002E0921800985B41002803DA002098
:1003F000014605B0F0BD00200121090507468646EB
:1004000011E064461D46141BB54106D36546521BD8
:10041000B341744607430C43A646CD07400849083C
:10042000284392185B4105460D43EAD11046184314
:1004300013D06046194650407140084306D06046CC
:10044000101AB34106D20122002306E00022012344
:10045000DB0702E00122D2435310009874460105E5
:10046000381C6141029C039D0019694100F0A2F80B
:10047000BFE70000FD03000010B5002296231146DF
:1004800000F05FF810BD00004A0009030123090BCA
:100490001B051943094B10B5520D9A4201DA002091
:1004A00010BD064B34339A4203DC9A1AFFF72EFE36
:1004B00010BD03495118884010BD0000FF03000023
:1004C000CDFBFFFFC20FD207400040080BD0C10D8B
:1004D0000723DB01C91840020905400A1143C2087D
:1004E00040071143704700200146704710B5202A8D
:1004F00004DB0146203A9140002010BD91402023AA
:100500009C1A0346E3401943904010BD10B5202AC1
:1005100006DBCB170846203A1041C1170B4306E013
:100520000B461341D0402024A21A9140084319469B
:1005300010BD002904DA401C490001D140084000E8
:10054000704770B40024050C05D11024000402D1BA
:10055000002921D01124050E01D100020834050F15
:1005600001D10001241D850F01D18000A41C0028A9
:1005700001DB4000641C002908D020252E1B0D46FD
:10058000F540A14000D001212943084301061B1B6F
:10059000000ADB1D02D5002070BC7047DB0518186F
:1005A00080180029F8DA401C4900F5D170BC4008D9
:1005B0004000704710B5002B08DA0024401C614150
:1005C00092185B411A4301D14008400010BDF0B5BC
:1005D0001FB482B005460C0003D0084601F08AFC27
:1005E00002E001F087FC20300246009021462846B8
:1005F000FFF77CFF049B059A04460F4618431143FE
:10060000084314D0184610431BD0009840210A1A02
:1006100018460599FFF77AFD05460E46009A05999A
:100620000498FFF763FF084305D0012004E020464B
:10063000394607B0F0BD0020C11705430E432C43D7
:10064000374300990E986305401A7905E40A0022A1
:100650000C43FD0A0A3002D500200146E9E70105F6
:10066000101969410C9C0D9D00196941FFF7A2FF0B
:10067000DFE70000064C0125064E05E0E36807CCE5
:100680002B430C3C98471034B442F7D3FFF714FDCA
:1006900010200008302000087047000006490020A4
:1006A000C8610648016904221143016101694022C1
:1006B0001143016170470000E80000200020024063
:1006C000064A0021D16106490A6902231A430A61D8
:1006D000486108694022104308617047E800002023
:1006E0000020024010B5054B0022DA61044A13696C
:1006F000012423431361018010BD0000E8000020A5
:100700000020024010B50B4A0020D168CB060A49F0
:1007100004D5C86902231843C8611020D3685B0759
:1007200005D5CB6901242343CB6104210843D06064
:1007300010BD000000200240E800002070B5054612
:1007400000F078F90646104C0AE0681C08D0002D2D
:1007500004D000F06FF9801BA84201D9032070BDBE
:10076000E068C007F1D1E068800601D52020E06094
:10077000E068C00602D4E068400703D5FFF7C2FF77
:10078000012070BD002070BD00200240F8B5054674
:1007900023480F46017E012601290BD00121017655
:1007A0002868204C012807D02046FFF7C7FF002803
:1007B00013D030E00220F8BD2046FFF7BFFF00282D
:1007C00029D1FFF76BFF2046FFF7B8FF0646164812
:1007D00001690422914301611DE00020C04338609B
:1007E0006C6812E02046FFF76BFF0E48FFF7A6FF8C
:1007F00006460D48026902218A430261002E01D09B
:100800003C6008E0012080022418A8688102686822
:100810000818A042E6D80248002101763046F8BD0B
:10082000E800002050C30000002002400348016996
:100830008022114301610020704700000020024027
:10084000F0B51FB407461A480024017E15461E461F
:10085000012907D0012101761648FFF76FFF002814
:1008600003D020E0022005B0F0BD012F02D0022FFE
:1008700000D00427220128463146FFF747FC81B209
:10088000019862001018FFF72DFF0A48FFF756FF86
:1008900009490A69520852000A61002803D1641C00
:1008A000E4B2BC42E6D3024900220A76DBE700004C
:1008B000E800002050C30000002002400548016904
:1008C000090605D50449416004494160002070478C
:1008D000012070470020024023016745AB89EFCD1E
:1008E000F8B500238DE001249C40A44622407DD031
:1008F0004C68022C01D0122C0CD1DC08A400271863
:100900003C6A5D07ED0E0F26AE40B4430E69AE4063
:1009100026433E6205685E000324B4400F79A54378
:10092000BF07BF0FB7402F4307604D68012D05D0AB
:10093000022D03D0112D01D0122D0ED18568CF6864
:10094000A543B7402F43876047686546AF430D799D
:10095000ED06ED0F9D403D434560C568A5438C689D
:10096000B4402C43C4604C68E40049D5284CA569C8
:1009700001263543A561A4699D0834400094254CA7
:10098000AD002F19BC689D072E0F0F25B540AC4355
:100990000925ED06A84201D100250FE01E4DA84211
:1009A00001D101250AE01D4DA84201D1022505E033
:1009B0001B4DA84201D1032500E00525B540254384
:1009C000BD60184C25684E689543F60300D5154365
:1009D000256065684E689543B60300D5154365608C
:1009E000A5684E689543F60202D500E008E015437D
:1009F000A560E5684E689543B60200D51543E560ED
:100A00005B1C0A681446DC4000D06CE7F8BD0000AF
:100A100000100240000001400004004800080048A7
:100A2000000C0048000401400069084000D001208B
:100A30007047000001480068704700001000002067
:100A400002480168491C0160704700001000002046
:100A500010B506480168102211430160002000F023
:100A600007F800F017F8002010BD00000020024039
:100A700010B5044600F03AF97D21C900FFF730FBBC
:100A800000F030FB00222146501E00F021F800202B
:100A900010BD000008B50848816901221143816139
:100AA000816911400091C26901040A43C261C069B1
:100AB0000840009008BD000000100240C106C90EA9
:100AC00001208840014908607047000000E100E013
:100AD00010B500F0C9FE10BDF8B505460068354CEC
:100AE000C00352D5E0690026C00007D4E1692004A4
:100AF0000143E161E1690140012600912E4801684E
:100B0000C90510D40168821511430160FFF792FFF7
:100B1000074604E0FFF78EFFC01B642824D8264850
:100B20000068C005F6D5206A03273F02384020D070
:100B30006968394081421CD0206A226AB843012189
:100B400009040A432262226A8A4322622062C007A1
:100B50000FD0FFF76FFF009008E0FFF76BFF0099E1
:100B6000411A1648814201D90320F8BD206A800746
:100B7000F3D5206A6968B84308432062002E04D088
:100B8000E169012000078143E1612878C00705D0B1
:100B9000206BA968800880000843206328788006BD
:100BA00005D5206B10218843E968084320630020A5
:100BB000F8BD0000001002400070004088130000E3
:100BC000F8B5054644480E460068C007C00FB0425D
:100BD0000AD2414801684908490031430160006870
:100BE000C007C00FB0425CD128783C4C800705D5C7
:100BF0006068F0218843A968084360602878C007CE
:100C00003FD06868012813D02168022813D08907D3
:100C1000002946DA61688908890001436160FFF7AD
:100C200009FF6968074601290DD0022917D024E081
:100C300021688903ECE78901EAE7FFF7FBFEC11BA6
:100C40002748814217D860680007800F0128F4D137
:100C500017E0FFF7EFFEC11B214881420BD8606807
:100C60000007800F0228F4D10BE0FFF7E3FEC11B61
:100C70001B48814201D90320F8BD60680007800F3E
:100C8000F3D115480168C907C90FB1420BD90168F2
:100C900049084900314301600068C007C00FB042F5
:100CA00001D00120F8BD2878400706D560680721EB
:100CB00009028843E9680843606000F02DF8616824
:100CC000084A0906090F515CC8400749086000201E
:100CD000FFF7CEFE0020F8BD0020024000100240C9
:100CE00088130000F81F0008140000200148006865
:100CF0007047000014000020044805490068496856
:100D0000044A4905490F515CC8407047140000204F
:100D1000001002400820000810B512A30FCB88B0C5
:100D20006C460FC413A30FCB0FC416494A680C209E
:100D3000134603401448042B0FD0082B0DD1930207
:100D40001B0F6C46E45CC96A04AB0907090F595CC8
:100D5000D20304D5FFF7C4F9604308B010BD0B48B7
:100D60006043FAE702030405060708090A0B0C0DA5
:100D70000E0F10100102030405060708090A0B0CE8
:100D80000D0E0F100010024000127A0000093D0005
:100D9000FEB504460078D04DC00747D0686800070C
:100DA000800F012807D068680007800F022809D14A
:100DB0006868C00306D52868800337D560680028B6
:100DC0007ED033E0012062680004012A11D0810046
:100DD000002A01D0052A10D02A6882432A60286898
:100DE000884328606068002814D0FFF723FE064679
:100DF0000CE0296801432960F4E72A680A432A6065
:100E0000F7E7FFF717FE801B64286FD82868800378
:100E1000F7D50BE0FFF70EFE064604E0FFF70AFEEB
:100E2000801B6428F1D828688003F7D42078012635
:100E3000800700283BDA68680007800F07D06868E1
:100E40000007800F022809D16868C00306D428680B
:100E5000800715D5E068012832D111E0E06800284C
:100E6000286815D030432860FFF7E4FD074604E00A
:100E7000FFF7E0FDC01B0228C7D828688007F7D518
:100E80002868F82188432169C900084328600EE0DA
:100E9000400840002860FFF7CDFD074604E0FFF75B
:100EA000C9FDC01B0228B0D828688007F7D4207875
:100EB000000724D5E0690028686A10D0304300E0BC
:100EC00008E16862FFF7B6FD074604E0FFF7B2FDF0
:100ED000C01B022899D8686A8007F7D50FE0400840
:100EE00040006862FFF7A6FD074605E09DE0FFF7BA
:100EF000A1FDC01B022888D8686A8007F7D4207833
:100F000004274007002860DA00200190E869C0004B
:100F100008D4E969B8060143E961E96901400120A3
:100F2000009101906D480168C90511D401688215CE
:100F300011430160FFF77EFD009005E0FFF77AFDA9
:100F40000099401A642870D864480068C005F5D537
:100F5000A06801280AD0002801D0052810D0286AEE
:100F6000400840002862286AB84301E0286A3043FC
:100F70002862A068002812D0FFF75CFD00900AE00C
:100F8000286A38432862F1E7FFF754FD0099411AB7
:100F90005348814249D8286A8007F5D50DE0FFF70C
:100FA00049FD009006E0FFF745FD0099411A4C48C5
:100FB00081423AD8286A8007F5D40198002804D0E5
:100FC000E969012000078143E9612078C00635D531
:100FD000606901280CD0401D686B23D038436863DA
:100FE000686B400840006863FFF724FD064622E076
:100FF000686B38436863686B30436863FFF71AFDBA
:10100000064604E0FFF716FD801B02285BD8686BDC
:101010008007F7D5686BF8218843A169C9000843A8
:1010200068630BE0B8436863F4E74CE0FFF702FD48
:10103000801B022847D8686B8007F7D4206A0028F5
:1010400046D069680907890F022943D00126360670
:101050000228286805D0B0432860FFF7EBFC04465F
:1010600033E0B0432860FFF7E5FC074604E0FFF7F4
:10107000E1FCC01B022826D828688001F7D4E86A62
:10108000E16A000900010843E862616AA06A084356
:1010900069683D2212049143084368602868304320
:1010A0002860FFF7C7FC044604E0FFF7C3FC001B01
:1010B000022808D828688001F7D509E0FFF7BAFCB4
:1010C000001B022801D90320FEBD28688001F5D449
:1010D0000020FEBD0120FEBD001002400070004057
:1010E00088130000094910B5401E884201D901202B
:1010F00010BD074C60610321081F00F0B5FB002004
:10110000A06107202061002010BD0000FFFFFF004C
:1011100000E000E070B502462032137F012B1BD0A7
:101120000123137702245477046865687026B54359
:101130006560046865680E68354365600468A56885
:101140008026B543A5600068846849680C438460C4
:1011500053770020107770BD022070BD10B586B0A7
:10116000044614216846FEF7E9FF0E4920688842CC
:1011700015D10D48426949130A434261406908404C
:101180000590C02000900220019000200290039062
:101190000120049009206946C006FFF7A1FB06B0B4
:1011A00010BD00000004004000100240F8B50646E3
:1011B00004462036307F0D4601280DD001203077BF
:1011C000022070770427002A08D0042A16D0082AA3
:1011D0002AD00C2A4DD137E00220F8BD206800F05B
:1011E00033FC20688169082211438161206881698C
:1011F000B9438161206881692A6912E0206800F0A2
:101200005FFC206882690121C9020A43826120686B
:1012100081690122920291438161206881692A6972
:1012200012021143816124E0206800F083FC2068F1
:10123000C26908210A43C2612068C169B943C1611A
:101240002068C1692A6912E0206800F0AFFC2068BC
:10125000C1690122D2021143C1612068C269012122
:1012600089028A43C2612068C1692A691202114356
:10127000C1610120707700203077F8BD70B504009F
:1012800005D025462035687F002802D006E00120E1
:1012900070BD00202877204600F00AF80220687709
:1012A000211D206800F088FB01206877002070BDB8
:1012B00008B500680549884207D10548C26902217E
:1012C0000A43C261C0690840009008BD00040040A4
:1012D0000010024010B504460068012200F0A8FB8F
:1012E0000A482168814205D00948814202D0094854
:1012F000814204D1486C0122D20310434864206823
:101300000168012211430160002010BD002C014042
:10131000004401400048014070B5040005D0254656
:101320006035687A002802D006E0012070BD0020F8
:101330002872204600F026F8242068722068016890
:10134000490849000160204600F0E4FC0128EDD086
:10135000606A002802D0204600F06EFC20684168D8
:101360000122D202914341602068816808229143A2
:10137000816020680168012211430160204600F06D
:10138000C0FC70BD10B586B0044614216846FEF757
:10139000D5FE1949206888422BD11848826901215D
:1013A00089030A43826182690A4005924269C90041
:1013B0000A4342614069084005900C2000900220D9
:1013C00001900121002003900291049109206946B7
:1013D000C006FFF785FA002211461B20FFF778FBB5
:1013E0001B20FFF76BFB06480068016820221143B1
:1013F000016006B010BD000000380140001002403E
:101400007800002070B5034660339C7A202C39D1D7
:1014100000290BD0002A09D0012584682D03AC4295
:1014200006D10669002E03D1CE0701D0012070BD80
:101430001E7A012E26D001261E72416501464031DA
:101440000A834A83FF22AC4204D10469002C07D1ED
:101450000D4A05E0002C04D10469002C00D07F2245
:101460008A830021C16622229A72197201688A68F1
:1014700032438A6000680168FF2221321143016013
:10148000002070BD022070BDFF010000FFB50646C0
:1014900004466036707A83B00D46202858D1002D5E
:1014A0000CD00598002809D00120A16800038142D2
:1014B00007D12069002804D1E80702D0012007B035
:1014C000F0BD307A012843D0012030720020E06660
:1014D00021207072FFF7AEFA019027464037059839
:1014E00038820598788218E0788A401E78820698BB
:1014F0000090002280212046019B00F095FC0028EE
:1015000018D10120A1680003814202D1206900287E
:1015100012D02168287808856D1C788A0028E3D1CC
:1015200006980090002240212046019B00F07CFCA0
:10153000002808D00320C2E728882168C005C00D14
:101540000885AD1CE9E72020707200203072B6E7F4
:101550000220B4E770B5044600781F4DAD2802D0D4
:10156000FF282BD032E0204600F06AF900282DD069
:10157000207A102804D0112805D0122808D019E0AC
:10158000607A687001E0A07AA87000F083FC11E036
:10159000E17A1248E970002902D0012905D009E05A
:1015A0000268A97A9163E97A02E0026800219163F6
:1015B00000684163012000F07BF907E06078AA2809
:1015C00004D1A078FF2801D10120287014212046E1
:1015D000FEF7B4FD70BD00001800002038000020A8
:1015E000FEE70000FEB51F4E0A22707801090007D1
:1015F0005143000F0818FEF73FFF0446B0780A2257
:10160000010900075143000F0818FEF735FFFEF7E8
:1016100059FF05460022144B0291FEF7B5FE07461E
:1016200020460191FEF74EFF04463A460091019B89
:10163000FEF742FEFEF728FFB072284600220A4B52
:101640000299FEF731FE0022074BFEF79DFE02468F
:101650000B4620460099FEF72FFEFEF715FFF072AD
:10166000FEBD0000180000200000594010B50E48D3
:101670000C4A0021017013784370527882700B4A33
:1016800042600B4802689163006841630421084886
:10169000FFF720FE00210648FFF71CFEFFF7A2FF20
:1016A00010BD0000003C00081800002001000020D0
:1016B0003800002070B501250926AD02F60629463E
:1016C0003046FFF7B1F9134C0028207020D129468D
:1016D0003046FFF7A9F920700028F8D00E490F48CE
:1016E000CA78002A02D0012A09D00EE003688A7A5B
:1016F0009A630068CA7A42630120C87005E00368F3
:1017000000229A6300684263CA70122000F0D0F889
:1017100070BD0000000000201800002038000020EC
:1017200000B587B014216846FEF708FD0D484269F0
:10173000012189050A43426142690A4005924269D2
:1017400049110A434261406908400590C811009060
:1017500000200190029009206946C006FFF7C0F8FA
:1017600007B000BD0010024010B58AB000240794F5
:101770001C2168460894FEF7E1FC1C481A490160E8
:101780001B4984604160046164218461C160FFF78A
:1017900075FD002801D0FEF77FFF079407A91348C5
:1017A0000894FFF7B7FC002801D0FEF775FF602012
:1017B0000090019402940022694604940B48FFF7BC
:1017C000F5FC002801D0FEF767FF042269460748B0
:1017D000FFF7ECFC002801D0FEF75EFF0348FFF79F
:1017E000BDFC0AB010BD000000040040380000201D
:1017F000BF03000010B511480F490160E121490203
:10180000416000218160C160016181610C22C16180
:10181000426101627022426201221203826352001D
:10182000C263D20102644164FFF776FD002801D053
:10183000FEF732FF10BD00000038014078000020A4
:1018400010B5074A00215268435C545CA34201D0A2
:10185000002010BD491C0829F6DB012010BD000046
:1018600018000020704700008307FF22DB0E9A401B
:101870008907090E994000280BDA0007000F083885
:10188000830808489B001818C36993430B43C3613E
:101890007047830804489B001B181868904308434E
:1018A0001860704700ED00E000E400E0704770470A
:1018B0003EB50C4A00216B4614785C54491C521CFE
:1018C0000C29F9DB18720848194642785A72827856
:1018D0009A72C078D872C8230C220448FFF7D6FD4C
:1018E0003EBD00000100002018000020780000200C
:1018F00010B503480168491C0160FFF7A1F810BD4D
:101900000C00002070B594B030216846FEF716FC3C
:10191000002401250E94280413940F9409900D942B
:101920001094009500010C941294022601950A90DF
:10193000119408960B946846FFF72AFA07200C903A
:101940000E9401210D960F940CA8FFF739F910A8F9
:1019500010951294FFF7C0F814B070BD13480168D9
:101960000122114301604168114A11404160016840
:10197000104A114001600168012292049143016004
:1019800041683F22120491434160C16A090909017B
:10199000C162016BFF22143291430163416B49081C
:1019A000490041630021816070470000001002403F
:1019B0000CB8FF08FFFFF6FE70B50268174B184E13
:1019C000984201D0B04203D17024A2434C68224314
:1019D000144C154D984208D0B04206D0134EB04278
:1019E00003D0A04201D0A84204D103263602B2435C
:1019F000CE6832438026B2434E69324302608A6821
:101A0000C2620A688262984203D0A04201D0A84212
:101A100001D1096901630121416170BD002C0140C0
:101A20000004004000440140004801400020004004
:101A300010B50123046A8B409C430462036A8A4008
:101A40001343036210BD0000F0B5026A5208520051
:101A50000262056A436882697024A24392080C6896
:101A600092001443022295438A68134E2A43114D73
:101A7000A84204D0B04202D0104FB84206D1082785
:101A8000BA43CF681743042297433A46A84204D08A
:101A9000B04202D0094DA84206D103252D02AB4326
:101AA0004D691D438B692B434360846149684163E1
:101AB0000262F0BD002C014000440140004801409A
:101AC00070B5026A10239A430262046A436882690D
:101AD00073252D02AA430D682D021543202294433D
:101AE0008A6812012243104CA04208D11446CA68E9
:101AF0008026B443120122434024A24305E00B4C4C
:101B0000A04202D00A4CA04208D10324A402A3435D
:101B10004C69A4001C438B699B002343436085618F
:101B200049688163026270BD002C0140004401409D
:101B30000048014070B5026AFF2301339A430262F4
:101B4000046A4368C2697025AA4392080D6892002E
:101B500015430122520294438A6812022243104C18
:101B6000A04207D1C414A243CC6824022243061524
:101B7000B24305E00B4CA04202D00B4CA04208D16E
:101B800003242403A3434C6924011C438B691B01D8
:101B900023434360C5614968C163026270BD0000B0
:101BA000002C0140004401400048014030B5026A69
:101BB00001231B039A430262056A4268C3697324C6
:101BC0002402A3430C6824021C4301235B039D43AE
:101BD0008B681B032B430A4DA84205D0094DA84230
:101BE00002D0094DA84205D10125AD03AA434D6994
:101BF000AD012A434260C46149680164036230BD9B
:101C0000002C014000440140004801400748807A10
:101C1000222809D1054860380068828C0549044BA8
:101C200008781A54401C087070470000D800002043
:101C3000240000200900002010B5818CC90707D0BE
:101C400001684A6801235B049A43836A1A434A6025
:101C5000818C890707D501684A6801231B049A43D0
:101C6000C36A1A434A60818C490707D501684A68EC
:101C700001239B049A43036B1A434A60818C090732
:101C800007D501684A680123DB039A43436B1A4373
:101C90004A60818CC90607D50268916801231B033D
:101CA0009943836B19439160818C890607D501683C
:101CB0008A6801235B039A43C36B1A438A60818C51
:101CC000490612D503685A6801210905046C8A4344
:101CD00022435A60026C8A4207D10268516803238A
:101CE0005B059943436C19435160818C090607D504
:101CF00001684A680123DB04806C9A4302434A600E
:101D000010BD0021C16620226030427282720172D1
:101D100008467047F8B504462369A268E6691A4385
:101D2000636910213343002026681A43336805464F
:101D3000394F3B401343336023685A680326360308
:101D4000B243E66832435A60236AA26926681A439E
:101D5000B3680B273F02BB431343B3602F4A126B98
:101D60009207920F06D0012A08D0022A08D0032A2F
:101D700007D101E0002104E0022102E0042100E09B
:101D800008210122E369D203934224D100290CD017
:101D900002290DD0042913D0082917D001250109E3
:101DA00009010007400F084332E0FEF7A5FF09E0F4
:101DB00061681B4A48088018FEF792F980B2EEE786
:101DC000FEF7AAFF616840004A08F4E76168012253
:101DD00048081204EFE7002908D0022909D0042995
:101DE0000BD008290ED001252846F8BDFEF784FF48
:101DF00005E061680B4A480806E0FEF78DFF616860
:101E00004A0801E0616848088018FEF769F980B265
:101E10002168C860E8E70000F369FFFF0010024096
:101E20000024F40000127A00FFB581B017460E4678
:101E300004460A9D1DE0681C1BD0002D05D0FEF74E
:101E4000F9FD0499401AA84213D920680168FF22BD
:101E5000A13291430160206881684908490081608E
:101E6000202060346072A07200202072032005B030
:101E7000F0BD2068C1693046884304D00020B842D4
:101E8000D9D00020F3E70120F9E700B5FFF7BEFE47
:101E900000BD00001FB5FFF7A5FB1348C17801295D
:101EA00006D1124A837A1468A3631268C37A536313
:101EB000827809041202407851180C180020009012
:101EC0000B48019001200290FEF7F8FC03A9684638
:101ED000FEF75CFC2246002302200199FEF7B0FCCD
:101EE000FEF7A4FC1FBD00001800002038000020F1
:101EF000003C00082021020C01D010211046020AEB
:101F000001D010460839020901D01046091F820885
:101F100001D01046891E420801D0881E7047081A59
:101F2000704702E008C8121F08C1002AFAD17047A2
:101F30007047002001E001C1121F002AFBD1704749
:101F4000FEF786FDFFF7DEFCFFF7EAFBFFF70CFC70
:101F5000FFF750FCFF20FFF7ABFCFF20FFF7A8FCCA
:101F6000FFF784FB14221E491E48FFF74BFA1D4C55
:101F70002068016A1025294301621B4E3078002831
:101F800009D11B4819490068FEF7AAF8642902D252
:101F90000220FFF78DFC2068C169C9061CD50168C5
:101FA000FF2221329143016020688168490849007D
:101FB00081600B48FFF7CEFA0A4820216030817219
:101FC0000C4900200870142205490648FFF71AFA48
:101FD0002068016A29430162FFF76CFBCEE700002D
:101FE0002400002078000020180000208813000042
:101FF0000C0000200900002000000000000000008C
:10200000010203040607080900000000010203049E
:10201000302000080000002018000000221F0008E7
:102020004820000818000020F0040000321F0008BB
:1020300000AD39A51A004B1200000000000000009E
:082040000000000000127A000C
:04000005080000B13E
:00000001FF
