:020000040800F2
:10000000B0050020C500000839120008E9100008FA
:1000100000000000000000000000000000000000E0
:10002000000000000000000000000000491300086C
:100030000000000000000000B11200088513000855
:10004000D700000800000000D7000008D700000813
:10005000D7000008D7000008D7000008D700000824
:1000600000000000D7000008D7000008D7000008F3
:10007000D7000008D7000008D700000800000000E3
:10008000D70000080000000000000000D7000008B2
:1000900000000000D7000008D7000008D7000008C3
:1000A00000000000D70000080000000057190008F9
:1000B0000348854600F06CF8004800479519000891
:1000C000B00500200448804704480047FEE7FEE7EB
:1000D000FEE7FEE7FEE7FEE70D140008B1000008AA
:1000E00030B50B46014600202022012409E00D46D0
:1000F000D5409D4205D31D469540491B2546954058
:1001000040191546521E002DF1DC30BD10B5202AD5
:1001100004DB0846203AD040002110BD0B46D340F6
:10012000D0402024A21A91400843194610BD03462E
:100130000B439B0703D009E008C9121F08C0042A1B
:10014000FAD203E00B780370401C491C521EF9D20E
:100150007047D2B201E00270401C491EFBD27047CA
:100160000022F6E710B513460A4604461946FFF783
:10017000F0FF204610BD10B5044605E00B78037073
:10018000401C002B00D0491C521EF7D2204610BD47
:10019000064C0125064E05E0E36807CC2B430C3CDA
:1001A00098471034B442F7D3FFF786FF981A000837
:1001B000B81A000810B50A4C002060742070094875
:1001C000E06000682074000AA07408220649201D1F
:1001D000FFF7D1FF0548E0610548A06110BD0000B0
:1001E00014000020003C000800000020B5120008A8
:1001F0004D1300087047000006490020C8610648FA
:100200000169042211430161016940221143016126
:10021000704700009001002000200240064A0021A3
:10022000D16106490A6902231A430A6148610869D3
:1002300040221043086170479001002000200240D6
:1002400010B5054B0022DA61044A136901242343E7
:100250001361018010BD00009001002000200240C9
:1002600010B50B4A0020D168CB060A4904D5C869ED
:1002700002231843C8611020D3685B0705D5CB69FA
:1002800001242343CB6104210843D06010BD00004A
:10029000002002409001002070B5054600F0AAF948
:1002A0000646104C0AE0681C08D0002D04D000F06F
:1002B000A1F9801BA84201D9032070BDE068C007E6
:1002C000F1D1E068800601D52020E060E068C0063A
:1002D00002D4E068400703D5FFF7C2FF012070BDDC
:1002E000002070BD002002401FB5002817D00C4927
:1002F0000C7C897C019009020C43002101200091B3
:10030000029000F0B1F803A9684600F015F8224603
:1003100000230220019900F069F800F05DF81FBD8C
:100320001400002010B509201021C00600F052F979
:10033000012800D0002010BDF8B5054623480F461F
:10034000017E012601290BD0012101762868204C6D
:10035000012807D02046FFF79FFF002813D030E088
:100360000220F8BD2046FFF797FF002829D1FFF7AC
:1003700043FF2046FFF790FF064616480169042216
:10038000914301611DE00020C04338606C6812E0B9
:100390002046FFF743FF0E48FFF77EFF06460D4855
:1003A000026902218A430261002E01D03C6008E00C
:1003B000012080022418A868810268680818A042F9
:1003C000E6D80248002101763046F8BD90010020B1
:1003D00050C30000002002400348016980221143FD
:1003E000016100207047000000200240F0B51FB4FA
:1003F00007461A480024017E15461E46012907D0EB
:10040000012101761648FFF747FF002803D020E0BE
:10041000022005B0F0BD012F02D0022F00D004272A
:10042000220128463146FFF771FE81B20198620031
:100430001018FFF705FF0A48FFF72EFF09490A6960
:10044000520852000A61002803D1641CE4B2BC4285
:10045000E6D3024900220A76DBE700009001002083
:1004600050C300000020024005480169090605D577
:1004700004494160044941600020704701207047F1
:100480000020024023016745AB89EFCDF8B500237A
:100490008DE001249C40A44622407DD04C68022C73
:1004A00001D0122C0CD1DC08A40027183C6A5D078F
:1004B000ED0E0F26AE40B4430E69AE4026433E62B9
:1004C00005685E000324B4400F79A543BF07BF0F42
:1004D000B7402F4307604D68012D05D0022D03D092
:1004E000112D01D0122D0ED18568CF68A543B740DC
:1004F0002F43876047686546AF430D79ED06ED0FE2
:100500009D403D434560C568A5438C68B4402C437D
:10051000C4604C68E40049D5284CA56901263543E0
:10052000A561A4699D0834400094254CAD002F19A5
:10053000BC689D072E0F0F25B540AC430925ED067D
:10054000A84201D100250FE01E4DA84201D101258E
:100550000AE01D4DA84201D1022505E01B4DA8422D
:1005600001D1032500E00525B5402543BD60184CA9
:1005700025684E689543F60300D5154325606568E8
:100580004E689543B60300D515436560A5684E686F
:100590009543F60202D500E008E01543A560E56842
:1005A0004E689543B60200D51543E5605B1C0A68AA
:1005B0001446DC4000D06CE7F8BD0000001002409B
:1005C000000001400004004800080048000C0048FA
:1005D000000401400069084000D0012070474269D2
:1005E0004A4042617047002A01D0816170478162B0
:1005F0007047000001480068704700000C000020B0
:1006000002480168491C0160704700000C0000208E
:1006100010B506480168102211430160002000F067
:1006200007F800F017F8002010BD0000002002407D
:1006300010B5044600F03AF97D21C900FFF750FDDE
:1006400000F030FB00222146501E00F021F800206F
:1006500010BD000008B5084881690122114381617D
:10066000816911400091C26901040A43C261C069F5
:100670000840009008BD000000100240C106C90EED
:1006800001208840014908607047000000E100E057
:1006900010B500F0D3FD10BDF8B505460068354C27
:1006A000C00352D5E0690026C00007D4E1692004E8
:1006B0000143E161E1690140012600912E48016892
:1006C000C90510D40168821511430160FFF792FF3C
:1006D000074604E0FFF78EFFC01B642824D8264895
:1006E0000068C005F6D5206A03273F02384020D0B5
:1006F0006968394081421CD0206A226AB8430121CE
:1007000009040A432262226A8A4322622062C007E5
:100710000FD0FFF76FFF009008E0FFF76BFF009925
:10072000411A1648814201D90320F8BD206A80078A
:10073000F3D5206A6968B84308432062002E04D0CC
:10074000E169012000078143E1612878C00705D0F5
:10075000206BA96880088000084320632878800601
:1007600005D5206B10218843E968084320630020E9
:10077000F8BD000000100240007000408813000027
:10078000F8B5054644480E460068C007C00FB042A1
:100790000AD24148016849084900314301600068B4
:1007A000C007C00FB0425CD128783C4C800705D50B
:1007B0006068F0218843A968084360602878C00712
:1007C0003FD06868012813D02168022813D0890718
:1007D000002946DA61688908890001436160FFF7F2
:1007E00009FF6968074601290DD0022917D024E0C6
:1007F00021688903ECE78901EAE7FFF7FBFEC11BEB
:100800002748814217D860680007800F0128F4D17B
:1008100017E0FFF7EFFEC11B214881420BD860684B
:100820000007800F0228F4D10BE0FFF7E3FEC11BA5
:100830001B48814201D90320F8BD60680007800F82
:10084000F3D115480168C907C90FB1420BD9016836
:1008500049084900314301600068C007C00FB04239
:1008600001D00120F8BD2878400706D5606807212F
:1008700009028843E9680843606000F02DF8616868
:10088000084A0906090F515CC84007490860002062
:10089000FFF7CEFE0020F8BD00200240001002400D
:1008A00088130000801A000810000020014800682A
:1008B000704700001000002004480549006849689E
:1008C000044A4905490F515CC84070471000002098
:1008D00000100240901A000810B512A30FCB88B088
:1008E0006C460FC413A30FCB0FC416494A680C20E3
:1008F000134603401448042B0FD0082B0DD193024C
:100900001B0F6C46E45CC96A04AB0907090F595C0C
:10091000D20304D5FFF7E4FB604308B010BD0B48D9
:100920006043FAE702030405060708090A0B0C0DE9
:100930000E0F10100102030405060708090A0B0C2C
:100940000D0E0F100010024000127A0000093D0049
:10095000FEB504460078D04DC00747D06868000750
:10096000800F012807D068680007800F022809D18E
:100970006868C00306D52868800337D560680028FA
:100980007ED033E0012062680004012A11D081008A
:10099000002A01D0052A10D02A6882432A602868DC
:1009A000884328606068002814D0FFF723FE0646BD
:1009B0000CE0296801432960F4E72A680A432A60A9
:1009C000F7E7FFF717FE801B64286FD828688003BD
:1009D000F7D50BE0FFF70EFE064604E0FFF70AFE30
:1009E000801B6428F1D828688003F7D4207801267A
:1009F000800700283BDA68680007800F07D0686826
:100A00000007800F022809D16868C00306D428684F
:100A1000800715D5E068012832D111E0E068002890
:100A2000286815D030432860FFF7E4FD074604E04E
:100A3000FFF7E0FDC01B0228C7D828688007F7D55C
:100A40002868F82188432169C900084328600EE01E
:100A5000400840002860FFF7CDFD074604E0FFF79F
:100A6000C9FDC01B0228B0D828688007F7D42078B9
:100A7000000724D5E0690028686A10D0304300E000
:100A800008E16862FFF7B6FD074604E0FFF7B2FD34
:100A9000C01B022899D8686A8007F7D50FE0400884
:100AA00040006862FFF7A6FD074605E09DE0FFF7FE
:100AB000A1FDC01B022888D8686A8007F7D4207877
:100AC00004274007002860DA00200190E869C00090
:100AD00008D4E969B8060143E961E96901400120E8
:100AE000009101906D480168C90511D40168821513
:100AF00011430160FFF77EFD009005E0FFF77AFDEE
:100B00000099401A642870D864480068C005F5D57B
:100B1000A06801280AD0002801D0052810D0286A32
:100B2000400840002862286AB84301E0286A304340
:100B30002862A068002812D0FFF75CFD00900AE050
:100B4000286A38432862F1E7FFF754FD0099411AFB
:100B50005348814249D8286A8007F5D50DE0FFF750
:100B600049FD009006E0FFF745FD0099411A4C4809
:100B700081423AD8286A8007F5D40198002804D029
:100B8000E969012000078143E9612078C00635D575
:100B9000606901280CD0401D686B23D0384368631E
:100BA000686B400840006863FFF724FD064622E0BA
:100BB000686B38436863686B30436863FFF71AFDFE
:100BC000064604E0FFF716FD801B02285BD8686B21
:100BD0008007F7D5686BF8218843A169C9000843ED
:100BE00068630BE0B8436863F4E74CE0FFF702FD8D
:100BF000801B022847D8686B8007F7D4206A00283A
:100C000046D069680907890F022943D001263606B4
:100C10000228286805D0B0432860FFF7EBFC0446A3
:100C200033E0B0432860FFF7E5FC074604E0FFF738
:100C3000E1FCC01B022826D828688001F7D4E86AA6
:100C4000E16A000900010843E862616AA06A08439A
:100C500069683D2212049143084368602868304364
:100C60002860FFF7C7FC044604E0FFF7C3FC001B45
:100C7000022808D828688001F7D509E0FFF7BAFCF8
:100C8000001B022801D90320FEBD28688001F5D48D
:100C90000020FEBD0120FEBD00100240007000409B
:100CA00088130000094910B5401E884201D901206F
:100CB00010BD074C60610321081F00F0BFFA00203F
:100CC000A06107202061002010BD0000FFFFFF0091
:100CD00000E000E070B502462032137F012B1BD0EC
:100CE0000123137702245477046865687026B5439E
:100CF0006560046865680E68354365600468A568CA
:100D00008026B543A5600068846849680C43846008
:100D100053770020107770BD022070BD10B586B0EB
:100D2000044614216846FFF71BFA0E4920688842E2
:100D300015D10D48426949130A4342614069084090
:100D40000590C020009002200190002002900390A6
:100D50000120049009206946C006FFF797FB06B002
:100D600010BD00000004004000100240F8B5064627
:100D700004462036307F0D4601280DD00120307703
:100D8000022070770427002A08D0042A16D0082AE7
:100D90002AD00C2A4DD137E00220F8BD206800F09F
:100DA000ABFB206881690822114381612068816959
:100DB000B9438161206881692A6912E0206800F0E6
:100DC000D7FB206882690121C9020A438261206839
:100DD00081690122920291438161206881692A69B7
:100DE00012021143816124E0206800F0FBFB2068BF
:100DF000C26908210A43C2612068C169B943C1615F
:100E00002068C1692A6912E0206800F027FC206888
:100E1000C1690122D2021143C1612068C269012166
:100E200089028A43C2612068C1692A69120211439A
:100E3000C1610120707700203077F8BD70B50400E3
:100E400005D025462035687F002802D006E0012025
:100E500070BD00202877204600F00AF8022068774D
:100E6000211D206800F000FB01206877002070BD84
:100E700008B500680549884207D10548C2690221C2
:100E80000A43C261C0690840009008BD00040040E8
:100E90000010024010B504460068012200F020FB5B
:100EA0000A482168814205D00948814202D0094898
:100EB000814204D1486C0122D20310434864206867
:100EC0000168012211430160002010BD002C014087
:100ED000004401400048014030B50446006800224B
:100EE00000F0FEFA144A134821689310814205D09D
:100EF0001248814202D0124881420AD1086A104247
:100F000007D1086A184204D1486C0125ED03A843B3
:100F100048642068016A114206D1016A194203D16E
:100F200001684908490001600120203460770020F1
:100F300030BD0000002C01401111000000440140B0
:100F40000048014070B5040005D025466035687A38
:100F5000002802D006E0012070BD00202872204643
:100F600000F026F8242068722068016849084900CA
:100F70000160204600F034FC0128EDD0606A0028B2
:100F800002D0204600F0BEFB206841680122D20258
:100F90009143416020688168082291438160206804
:100FA0000168012211430160204600F010FC70BD71
:100FB00010B586B0044614216846FFF7D1F81649EB
:100FC0002068884225D115488269012189030A4396
:100FD000826182690A4005924269C9000A434261FE
:100FE0004069084005900C200090022001900121EA
:100FF000002003900291049109206946C006FFF782
:1010000045FA002211461B20FFF742FB1B20FFF789
:1010100035FB06B010BD0000003801400010024052
:10102000FFB5064604466036707A83B00D46202828
:1010300058D1002D0CD00598002809D00120A168B6
:101040000003814207D12069002804D1E80702D0BB
:10105000012007B0F0BD307A012843D00120307262
:101060000020E06621207072FFF7C4FA0190274645
:101070004037059838820598788218E0788A401EB3
:10108000788206980090002280212046019B00F083
:1010900031FC002818D10120A1680003814202D14F
:1010A0002069002812D02168287808856D1C788A6C
:1010B0000028E3D106980090002240212046019BA1
:1010C00000F018FC002808D00320C2E72888216817
:1010D000C005C00D0885AD1CE9E720207072002016
:1010E0003072B6E70220B4E7FEE7000003480121B2
:1010F000026891630068416370470000340000207B
:1011000030B587B014216846FFF72AF812484269C3
:10111000012149040A4342614069104C08400925F5
:10112000ED060590012221462846FFF75CFA00945F
:101130000120002401900294694628460394FFF799
:10114000A5F94120000100900194694602942846C7
:10115000FFF79CF907B030BD00100240010200000B
:1011600010B58AB0002407941C2168460894FEF745
:10117000F7FF1C481A4901601B4984604160046103
:1011800064218461C160FFF759FE002801D0FFF798
:1011900031F8079407A913480894FFF79BFD00282E
:1011A00001D0FFF727F860200090019402940022FC
:1011B000694604940B48FFF7D9FD002801D0FFF7DA
:1011C00019F8042269460748FFF7D0FD002801D02E
:1011D000FFF710F80348FFF7A1FD0AB010BD0000AB
:1011E0000004004034000020BF03000010B5114887
:1011F0000F4901604B21C901416000218160C1603C
:10120000016181610C22C16142610162702242620E
:101210000122120382635200C263D201026441645C
:10122000FFF790FE002801D0FEF7E4FF10BD00009C
:101230000038014020010020704700008307FF2292
:10124000DB0E9A408907090E994000280BDA000747
:10125000000F0838830808489B001818C369934397
:101260000B43C3617047830804489B001B18186830
:10127000904308431860704700ED00E000E400E090
:1012800070B532210948FEF76BFF08480021303065
:1012900002468170A03A13681C6820252C431C600C
:1012A000126810231362C17070BD0000E4000020BA
:1012B0007047000070B52148C078022832D11F491C
:1012C0001F4C2F390020054623180A5C1B799A42CF
:1012D00024D1401CC0B20828F6D318480126403853
:1012E000007C032806D0102806D0112804D012282C
:1012F00014D104E0267011E0FFF7F8FE0BE0607CEB
:10130000012810D004210F48FFF7C4FD00210D482B
:10131000FFF7C0FD6674E068FEF7E6FF0748203877
:10132000806A804770BD04210648FFF7D5FD002183
:101330000448FFF7D1FD6574EDE7000014010020BB
:101340001400002034000020704700003EB50B4A16
:101350006B46111D187001200C781C54401C491C50
:101360000D28F9DB117C5972917C9972517CD972EC
:1013700003480C21426A184690473EBD14000020E5
:10138000F400002010B509490868401C08607D2160
:10139000C900FEF7A5FE002905D101210920490257
:1013A000C006FFF71CF9FFF72BF910BD080000205D
:1013B00070B594B030216846FEF7D2FE00240E943A
:1013C000139410200994022504900D940F94052085
:1013D000129401260095C0040C94109403960A9070
:1013E000119408950B946846FFF7B2FA07200C9009
:1013F0000E9401210D950F940CA8FFF7C1F91096DA
:1014000010A81296FFF748F914B070BD1348016890
:101410000122114301604168114A11404160016895
:10142000104A114001600168012292049143016059
:1014300041683F22120491434160C16A09090901D0
:10144000C162016BFF22143291430163416B490871
:101450004900416300218160704700000010024094
:101460000CB8FF08FFFFF6FE70B50268174B184E68
:10147000984201D0B04203D17024A2434C68224369
:10148000144C154D984208D0B04206D0134EB042CD
:1014900003D0A04201D0A84204D103263602B243B1
:1014A000CE6832438026B2434E69324302608A6876
:1014B000C2620A688262984203D0A04201D0A84268
:1014C00001D1096901630121416170BD002C014016
:1014D000000400400044014000480140002000405A
:1014E00010B50123046A8B409C430462036A8A405E
:1014F0001343036210BD0000F0B5026A52085200A7
:101500000262056A436882697024A24392080C68EB
:1015100092001443022295438A68134E2A43114DC8
:10152000A84204D0B04202D0104FB84206D10827DA
:10153000BA43CF681743042297433A46A84204D0DF
:10154000B04202D0094DA84206D103252D02AB437B
:101550004D691D438B692B43436084614968416336
:101560000262F0BD002C01400044014000480140EF
:1015700070B5026A10239A430262046A4368826962
:1015800073252D02AA430D682D0215432022944392
:101590008A6812012243104CA04208D11446CA683E
:1015A0008026B443120122434024A24305E00B4CA1
:1015B000A04202D00A4CA04208D10324A402A343B3
:1015C0004C69A4001C438B699B00234343608561E5
:1015D00049688163026270BD002C014000440140F3
:1015E0000048014070B5026AFF2301339A4302624A
:1015F000046A4368C2697025AA4392080D68920084
:1016000015430122520294438A6812022243104C6D
:10161000A04207D1C414A243CC6824022243061579
:10162000B24305E00B4CA04202D00B4CA04208D1C3
:1016300003242403A3434C6924011C438B691B012D
:1016400023434360C5614968C163026270BD000005
:10165000002C0140004401400048014030B5026ABE
:1016600001231B039A430262056A4268C36973241B
:101670002402A3430C6824021C4301235B039D4303
:101680008B681B032B430A4DA84205D0094DA84285
:1016900002D0094DA84205D10125AD03AA434D69E9
:1016A000AD012A434260C46149680164036230BDF0
:1016B000002C01400044014000480140104830B572
:1016C0000146A039C5780A46703284780B68002D2F
:1016D00002D0012D08D00CE09B8CA3548278521CC0
:1016E00082700022C27004E09B8CA3548278521C4A
:1016F00082700968C969C90601D50221C17030BD6F
:101700001401002010B5818CC90707D001684A6810
:1017100001235B049A43836A1A434A60818C8907D8
:1017200007D501684A6801231B049A43C36A1A4318
:101730004A60818C490707D501684A6801239B04E8
:101740009A43036B1A434A60818C090707D50168E5
:101750004A680123DB039A43436B1A434A60818C36
:10176000C90607D50268916801231B039943836B5F
:1017700019439160818C890607D501688A68012325
:101780005B039A43C36B1A438A60818C490612D566
:1017900003685A6801210905046C8A4322435A6090
:1017A000026C8A4207D10268516803235B059943A2
:1017B000436C19435160818C090607D501684A685A
:1017C0000123DB04806C9A4302434A6010BD002170
:1017D000C1662022603042728272017208467047F0
:1017E000F8B504462369A268E6691A4363691021C3
:1017F0003343002026681A4333680546394F3B407F
:101800001343336023685A6803263603B243E668FD
:1018100032435A60236AA26926681A43B3680B27C9
:101820003F02BB431343B3602F4A126B9207920FE0
:1018300006D0012A08D0022A08D0032A07D101E0E5
:10184000002104E0022102E0042100E0082101223D
:10185000E369D203934224D100290CD002290DD090
:10186000042913D0082917D001250109090100070F
:10187000400F084332E0FFF71FF809E061681B4A98
:1018800048088018FEF72CFC80B2EEE7FFF724F83A
:10189000616840004A08F4E76168012248081204C0
:1018A000EFE7002908D0022909D004290BD0082924
:1018B0000ED001252846F8BDFEF7FEFF05E0616861
:1018C0000B4A480806E0FFF707F861684A0801E09C
:1018D000616848088018FEF703FC80B22168C86080
:1018E000E8E70000F369FFFF001002400024F40065
:1018F00000127A00FFB581B017460E4604460A9DD5
:101900001DE0681C1BD0002D05D0FEF773FE049966
:10191000401AA84213D920680168FF22A1329143DE
:101920000160206881684908490081602020603496
:101930006072A07200202072032005B0F0BD206804
:10194000C1693046884304D00020B842D9D0002075
:10195000F3E70120F9E700B5FFF7B0FE00BD000096
:101960000A4610B501460A230148FFF759FB10BD8E
:101970007400002002E008C8121F08C1002AFAD132
:1019800070477047002001E001C1121F002AFBD1FF
:1019900070470000FEF73CFEFFF70AFDFFF7B0FBC3
:1019A000FFF7DEFBFFF722FC0024FEF703FC2D4DC2
:1019B0002D4EE8698047002C0DD0012C3AD0022C26
:1019C0004AD000243068C069C006F2D526480221FA
:1019D000A030C170EDE7522224492348FEF7A7FB4F
:1019E000224C4034608A204F403778822146384666
:1019F000062214311430FEF79AFB608B788321465F
:101A000038460D221C311C30FEF791FB2046203059
:101A1000427A394620314A72807A88721348C06E01
:101A2000F066384612494030416212498162FFF740
:101A300027FC14E0FEF776FC00280BD00F480E4977
:101A40000068FEF74DFBFF202D30814202D8A969C6
:101A5000022088470224B5E728780028B2D1012463
:101A6000B0E70000140000207400002020010020D6
:101A700061190008811200081027000008000020EA
:101A8000000000000000000001020304060708092E
:101A90000000000001020304B81A00080000002042
:101AA0001400000074190008CC1A0008140000206B
:101AB0009C05000084190008AD39A51A004B1200DE
:0C1AC000000000000000000000127A008E
:04000005080000B13E
:00000001FF
