:020000040800F2
:1000000068050020C5000008891700085115000880
:1000100000000000000000000000000000000000E0
:10002000000000000000000000000000B5180008FB
:100030000000000000000000011800080D19000871
:10004000D700000800000000D7000008D700000813
:10005000D7000008D7000008D7000008D700000824
:1000600000000000D7000008D7000008D7000008F3
:10007000D7000008D7000008D700000800000000E3
:10008000D70000080000000000000000D7000008B2
:1000900000000000D7000008D7000008D7000008C3
:1000A00000000000D700000800000000E91F000861
:1000B0000348854600F0CEF900480047612000085B
:1000C000680500200448804704480047FEE7FEE733
:1000D000FEE7FEE7FEE7FEE77D190008B100000835
:1000E00030B50B46014600202022012409E00D46D0
:1000F000D5409D4205D31D469540491B2546954058
:1001000040191546521E002DF1DC30BD10B5202AD5
:1001100004DB0846203AD040002110BD0B46D340F6
:10012000D0402024A21A91400843194610BDD2B2F3
:1001300001E00270401C491EFBD270470022F6E726
:1001400010B513460A4604461946FFF7F0FF20464D
:1001500010BD0000F0B51FB488B00B9909980024B9
:1001600048400999C00F490049080991C0070B99F7
:100170000090490049080B9109990898A646084340
:100180001CD00B990A98084318D009980124400004
:10019000420D4800410D099824050003000B20433F
:1001A00009900B980003000B20430B9050181C493A
:1001B0004018002201901446104605E00020014638
:1001C0000DB0F0BD032801DA034600E003239C468E
:1001D000C11A0AAE0AE05F0008ADED5B4F00F75BA5
:1001E0007D430027AA187C41491C5B1E6145F2DD56
:1001F000410004AB5A522104120C0A43240C401C47
:100200000828DFDB01980290009970460191009068
:10021000059B049A0799069800F0C9F8D0E70000FA
:100220000DFCFFFFF0B50C465C4085B0E40FE40721
:1002300003944C000026640859009446490802467D
:100240000296224321D062460A431ED06200570D17
:100250004A000E032303550D012402462C492405B0
:10026000781B1B0B360B4018234326436146009036
:100270001C46501AB44103D30098401C009002E081
:10028000921800985B41002803DA0020014605B06F
:10029000F0BD0020012109050746864611E06446AD
:1002A0001D46141BB54106D36546521BB341744627
:1002B00007430C43A646CD07400849082843921837
:1002C0005B4105460D43EAD11046184313D0604602
:1002D000194650407140084306D06046101AB34199
:1002E00006D20122002306E000220123DB0702E000
:1002F0000122D2435310009874460105381C614115
:10030000029C039D0019694100F044F8BFE700001A
:10031000FD0300000EB5C217C10F5040CA074018B8
:100320000021054B0293019200910A460B4600F012
:100330003EF803B000BD0000330400000EB50549CF
:100340000291002100910A460B46019100F02FF81E
:1003500003B000BD330400004A0009030123090B68
:100360001B051943094B10B5520D9A4201DA0020C2
:1003700010BD064B34339A4203DC9A1AFFF7C6FECF
:1003800010BD03495118884010BD0000FF03000054
:10039000CDFBFFFF10B5002B08DA0024401C6141A3
:1003A00092185B411A4301D14008400010BDF0B5DE
:1003B0001FB482B005460C0003D0084601F02AFEA7
:1003C00002E001F027FE2030024600902146284638
:1003D00000F052F8049B059A04460F461843114357
:1003E000084314D0184610431BD0009840210A1A25
:1003F00018460599FFF78AFE05460E46009A0599AC
:10040000049800F039F8084305D0012004E02046A4
:10041000394607B0F0BD0020C11705430E432C43F9
:10042000374300990E986305401A7905E40A0022C3
:100430000C43FD0A0A3002D500200146E9E7010518
:10044000101969410C9C0D9D00196941FFF7A2FF2D
:10045000DFE70000064C0125064E05E0E36807CC07
:100460002B430C3C98471034B442F7D3FFF724FEDB
:100470004C2100086C21000810B5202A04DB01463D
:10048000203A9140002010BD914020239C1A034641
:10049000E3401943904010BD10B5094C0020607432
:1004A00020700848E06000682074000AA07401F021
:1004B00077F8054820620548E0610548A06110BD55
:1004C00024000020003C000805180008B9180008A6
:1004D0001D0600087047000006490020C861064854
:1004E0000169042211430161016940221143016144
:1004F000704700004801002000200240064A002109
:10050000D16106490A6902231A430A6148610869F0
:10051000402210430861704748010020002002403B
:1005200010B5054B0022DA61044A13690124234304
:100530001361018010BD000048010020002002402E
:1005400010B50B4A0020D168CB060A4904D5C8690A
:1005500002231843C8611020D3685B0705D5CB6917
:1005600001242343CB6104210843D06010BD000067
:10057000002002404801002070B5054600F0E0F977
:100580000646104C0AE0681C08D0002D04D000F08C
:10059000D7F9801BA84201D9032070BDE068C007CD
:1005A000F1D1E068800601D52020E060E068C00657
:1005B00002D4E068400703D5FFF7C2FF012070BDF9
:1005C000002070BD002002401FB5002817D00C4944
:1005D0000C7C897C019009020C43002101200091D0
:1005E000029000F0E7F803A9684600F04BF82246B5
:1005F00000230220019900F09FF800F093F81FBD3E
:100600002400002010B509201021C00600F088F950
:10061000012801D0012010BD002010BD10B5054AF1
:1006200005490020135C0C18401CC0B22371082837
:10063000F8D310BD0C0000202400002070B5002469
:10064000014620314A78022A03D004218163012423
:1006500016E0026813680E25AB4313600268136846
:100660005B085B0013600122056C1346AB40C56B51
:100670006B604A7000220A70416B002900D08847E5
:10068000204670BDF8B5054623480F46017E012679
:1006900001290BD0012101762868204C012807D0C0
:1006A0002046FFF769FF002813D030E00220F8BD94
:1006B0002046FFF761FF002829D1FFF70DFF2046F4
:1006C000FFF75AFF0646164801690422914301616B
:1006D0001DE00020C04338606C6812E02046FFF740
:1006E0000DFF0E48FFF748FF06460D48026902213C
:1006F0008A430261002E01D03C6008E001208002A4
:100700002418A868810268680818A042E6D8024840
:10071000002101763046F8BD4801002050C300009A
:10072000002002400348016980221143016100203A
:100730007047000000200240F0B51FB407461A4879
:100740000024017E15461E46012907D001210176AD
:100750001648FFF711FF002803D020E0022005B063
:10076000F0BD012F02D0022F00D00427220128461D
:100770003146FFF7CBFC81B2019862001018FFF7F9
:10078000CFFE0A48FFF7F8FE09490A6952085200ED
:100790000A61002803D1641CE4B2BC42E6D30249DA
:1007A00000220A76DBE700004801002050C3000069
:1007B0000020024005480169090605D50449416049
:1007C000044941600020704701207047002002402A
:1007D00023016745AB89EFCDF8B500238DE00124F7
:1007E0009C40A44622407DD04C68022C01D0122CA3
:1007F0000CD1DC08A40027183C6A5D07ED0E0F261B
:10080000AE40B4430E69AE4026433E6205685E00CA
:100810000324B4400F79A543BF07BF0FB7402F4350
:1008200007604D68012D05D0022D03D0112D01D098
:10083000122D0ED18568CF68A543B7402F4387603E
:1008400047686546AF430D79ED06ED0F9D403D438A
:100850004560C568A5438C68B4402C43C4604C68AF
:10086000E40049D5284CA56901263543A561A46952
:100870009D0834400094254CAD002F19BC689D079D
:100880002E0F0F25B540AC430925ED06A84201D136
:1008900000250FE01E4DA84201D101250AE01D4DA3
:1008A000A84201D1022505E01B4DA84201D1032534
:1008B00000E00525B5402543BD60184C25684E680D
:1008C0009543F60300D51543256065684E6895434A
:1008D000B60300D515436560A5684E689543F602DA
:1008E00002D500E008E01543A560E5684E68954331
:1008F000B60200D51543E5605B1C0A681446DC406F
:1009000000D06CE7F8BD000000100240000001407C
:100910000004004800080048000C004800040140A2
:100920000069084000D00120704742694A40426196
:100930007047002A01D081617047816270470000D2
:1009400001480068704700001C0000200248016850
:10095000491C0160704700001C00002010B50648CB
:100960000168102211430160002000F007F800F038
:1009700017F8002010BD00000020024010B504460A
:1009800000F03AF97D21C900FFF7AAFB00F030FB27
:1009900000222146501E00F021F8002010BD00006A
:1009A00008B50848816901221143816181691140BC
:1009B0000091C26901040A43C261C0690840009005
:1009C00008BD000000100240C106C90E0120884089
:1009D000014908607047000000E100E010B500F038
:1009E000D5FE10BDF8B505460068354CC00352D59C
:1009F000E0690026C00007D4E16920040143E161F9
:100A0000E1690140012600912E480168C90510D412
:100A10000168821511430160FFF792FF074604E069
:100A2000FFF78EFFC01B642824D826480068C00545
:100A3000F6D5206A03273F02384020D06968394044
:100A400081421CD0206A226AB843012109040A436A
:100A50002262226A8A4322622062C0070FD0FFF717
:100A60006FFF009008E0FFF76BFF0099411A1648EE
:100A7000814201D90320F8BD206A8007F3D5206A9E
:100A80006968B84308432062002E04D0E169012060
:100A900000078143E1612878C00705D0206BA96871
:100AA00080088000084320632878800605D5206BE5
:100AB00010218843E968084320630020F8BD000046
:100AC000001002400070004088130000F8B5054691
:100AD00044480E460068C007C00FB0420AD24148E1
:100AE000016849084900314301600068C007C00F30
:100AF000B0425CD128783C4C800705D56068F02175
:100B00008843A968084360602878C0073FD06868B8
:100B1000012813D02168022813D08907002946DA5A
:100B200061688908890001436160FFF709FF69680E
:100B3000074601290DD0022917D024E02168890336
:100B4000ECE78901EAE7FFF7FBFEC11B274881427A
:100B500017D860680007800F0128F4D117E0FFF76D
:100B6000EFFEC11B214881420BD860680007800F4F
:100B70000228F4D10BE0FFF7E3FEC11B1B488142C2
:100B800001D90320F8BD60680007800FF3D1154834
:100B90000168C907C90FB1420BD90168490849006A
:100BA000314301600068C007C00FB04201D001208E
:100BB000F8BD2878400706D56068072109028843F8
:100BC000E9680843606000F02DF86168084A09068A
:100BD000090F515CC840074908600020FFF7CEFEAE
:100BE0000020F8BD002002400010024088130000E1
:100BF00034210008200000200148006870470000F0
:100C0000200000200448054900684968044A490555
:100C1000490F515CC840704720000020001002407E
:100C20004421000810B512A30FCB88B06C460FC446
:100C300013A30FCB0FC416494A680C201346034078
:100C40001448042B0FD0082B0DD193021B0F6C46B8
:100C5000E45CC96A04AB0907090F595CD20304D5E7
:100C6000FFF73EFA604308B010BD0B486043FAE757
:100C700002030405060708090A0B0C0D0E0F1010DD
:100C80000102030405060708090A0B0C0D0E0F10DC
:100C90000010024000127A0000093D00FEB5044633
:100CA0000078D04DC00747D068680007800F012842
:100CB00007D068680007800F022809D16868C00360
:100CC00006D52868800337D5606800287ED033E0D9
:100CD000012062680004012A11D08100002A01D09D
:100CE000052A10D02A6882432A6028688843286031
:100CF0006068002814D0FFF723FE06460CE0296840
:100D000001432960F4E72A680A432A60F7E7FFF7FE
:100D100017FE801B64286FD828688003F7D50BE086
:100D2000FFF70EFE064604E0FFF70AFE801B64286C
:100D3000F1D828688003F7D420780126800700289E
:100D40003BDA68680007800F07D068680007800FEB
:100D5000022809D16868C00306D42868800715D521
:100D6000E068012832D111E0E0680028286815D039
:100D700030432860FFF7E4FD074604E0FFF7E0FD9D
:100D8000C01B0228C7D828688007F7D52868F82133
:100D900088432169C900084328600EE040084000EC
:100DA0002860FFF7CDFD074604E0FFF7C9FDC01B33
:100DB0000228B0D828688007F7D42078000724D507
:100DC000E0690028686A10D0304300E008E16862FA
:100DD000FFF7B6FD074604E0FFF7B2FDC01B02288F
:100DE00099D8686A8007F7D50FE04008400068622C
:100DF000FFF7A6FD074605E09DE0FFF7A1FDC01B3C
:100E0000022888D8686A8007F7D42078042740072A
:100E1000002860DA00200190E869C00008D4E96980
:100E2000B8060143E961E9690140012000910190A0
:100E30006D480168C90511D401688215114301602C
:100E4000FFF77EFD009005E0FFF77AFD0099401A5C
:100E5000642870D864480068C005F5D5A0680128EA
:100E60000AD0002801D0052810D0286A4008400088
:100E70002862286AB84301E0286A30432862A068E3
:100E8000002812D0FFF75CFD00900AE0286A384382
:100E90002862F1E7FFF754FD0099411A5348814257
:100EA00049D8286A8007F5D50DE0FFF749FD009085
:100EB00006E0FFF745FD0099411A4C4881423AD8B7
:100EC000286A8007F5D40198002804D0E969012038
:100ED00000078143E9612078C00635D560690128A3
:100EE0000CD0401D686B23D038436863686B4008A2
:100EF00040006863FFF724FD064622E0686B384334
:100F00006863686B30436863FFF71AFD064604E0C8
:100F1000FFF716FD801B02285BD8686B8007F7D5AA
:100F2000686BF8218843A169C900084368630BE036
:100F3000B8436863F4E74CE0FFF702FD801B02282A
:100F400047D8686B8007F7D4206A002846D06968C4
:100F50000907890F022943D001263606022828688E
:100F600005D0B0432860FFF7EBFC044633E0B04304
:100F70002860FFF7E5FC074604E0FFF7E1FCC01B33
:100F8000022826D828688001F7D4E86AE16A0009B7
:100F900000010843E862616AA06A084369683D226B
:100FA0001204914308436860286830432860FFF7C3
:100FB000C7FC044604E0FFF7C3FC001B022808D866
:100FC00028688001F7D509E0FFF7BAFC001B02286A
:100FD00001D90320FEBD28688001F5D40020FEBDA4
:100FE0000120FEBD00100240007000408813000088
:100FF000094910B5401E884201D9012010BD074C97
:1010000060610321081F00F0C1FB0020A0610720E0
:101010002061002010BD0000FFFFFF0000E000E0A5
:1010200070B502462032137F012B1BD001231377AA
:1010300002245477046865687026B54365600468C7
:1010400065680E68354365600468A5688026B54309
:10105000A5600068846849680C4384605377002069
:10106000107770BD022070BD10B586B00446142103
:101070006846FFF763F80E492068884215D10D488D
:10108000426949130A434261406908400590C02003
:101090000090022001900020029003900120049013
:1010A00009206946C006FFF797FB06B010BD000097
:1010B0000004004000100240F8B506460446203601
:1010C000307F0D4601280DD0012030770220707747
:1010D0000427002A08D0042A16D0082A2AD00C2A6D
:1010E0004DD137E00220F8BD206800F0BDFC20683B
:1010F000816908221143816120688169B943816156
:10110000206881692A6912E0206800F0E9FC206803
:1011100082690121C9020A43826120688169012232
:10112000920291438161206881692A691202114308
:10113000816124E0206800F00DFD2068C26908216B
:101140000A43C2612068C169B943C1612068C169AD
:101150002A6912E0206800F039FD2068C169012287
:10116000D2021143C1612068C269012189028A4308
:10117000C2612068C1692A6912021143C16101205C
:10118000707700203077F8BD70B5040005D0254693
:101190002035687F002802D006E0012070BD0020C5
:1011A0002877204600F00AF802206877211D206881
:1011B00000F012FC01206877002070BD08B50068BF
:1011C0000549884207D10548C26902210A43C26124
:1011D000C0690840009008BD0004004000100240B3
:1011E00010B504460068012200F032FC0A4821686C
:1011F000814205D00948814202D00948814204D188
:10120000486C0122D203104348642068016801221F
:1012100011430160002010BD002C0140004401403A
:101220000048014030B504460068002200F010FC80
:10123000144A134821689310814205D01248814214
:1012400002D0124881420AD1086A104207D1086AC6
:10125000184204D1486C0125ED03A8434864206876
:10126000016A114206D1016A194203D10168490895
:1012700049000160012020346077002030BD00006B
:10128000002C0140111100000044014000480140C1
:1012900070470000F8B503680446D96918680D075F
:1012A0002D0F07D18A0605D5820603D5204600F00A
:1012B0006FFDF8BD9A68002D64D0D507ED0FFF26AD
:1012C000213606402E435DD0CE0706D0C60504D594
:1012D00001261E62E36E3343E3668F070223042672
:1012E000002F06DAD70704D027683B62E76E374342
:1012F000E7664F0706D5D20704D022681662E26E71
:101300001A43E2660A0709D5202202402A4305D083
:10131000236808221A62E36E1343E366E26E002A32
:10132000C7D0890604D5800602D5204600F030FDDE
:10133000E06E000703D42068806840061CD5204674
:1013400000F00AFD20688168490611D581684022B5
:1013500091438160606E00280AD012494163606E3B
:10136000FFF76CF90028A4D0606E416B8847F8BD88
:101370002046FFF78DFFF8BD2046FFF789FF0020CC
:10138000E066F8BD0A0605D5020603D5204600F042
:10139000C7FDF8BD4906FCD54006FAD5204600F049
:1013A000EAFCF8BD451D000870B5040005D02546CF
:1013B0006035687A002802D006E0012070BD002068
:1013C0002872204600F026F8242068722068016800
:1013D000490849000160204600F018FD0128EDD0C1
:1013E000606A002802D0204600F03EFC2068416878
:1013F0000122D20291434160206881680822914312
:10140000816020680168012211430160204600F0DC
:1014100090FC70BD10B586B0044614216846FEF7F6
:101420008DFE16492068884226D11548826901211F
:1014300089030A43826182690A4005924269C900B0
:101440000A4342614069084005900C200090022048
:1014500001900020029003200390012004900920B5
:101460006946C006FFF7B8F9002211461B20FFF7B6
:10147000B5FA1B20FFF7A8FA06B010BD00380140EE
:10148000001002407047FFB5064604466036707A89
:1014900083B00D46202858D1002D0CD00598002887
:1014A00009D00120A1680003814207D120690028EA
:1014B00004D1E80702D0012007B0F0BD307A01283E
:1014C00043D0012030720020E06621207072FFF7C7
:1014D00037FA019027464037059838820598788278
:1014E00018E0788A401E78820698009000228021B9
:1014F0002046019B00F047FD002818D10120A1687B
:101500000003814202D12069002812D02168287886
:1015100008856D1C788A0028E3D106980090002287
:1015200040212046019B00F02EFD002808D003201A
:10153000C2E728882168C005C00D0885AD1CE9E711
:101540002020707200203072B6E70220B4E77047A6
:10155000FEE7000070B501240925A402ED0621462E
:101560002846FFF7DDF9002817D121462846FFF766
:10157000D7F90028F9D0094C607C002802D0012856
:1015800004D007E000F058F8012002E000F060F815
:1015900000206074122000F08FF970BD240000203C
:1015A000FEB521490A23087C204D02070009120FCD
:1015B00058438018C4B22C70887C01070009090FB9
:1015C00058434018C0B268700090FEF7B7FE002282
:1015D000174BFEF727FE06460F462046FEF7AEFEE7
:1015E000044632463B460191FEF7B4FDFEF7B4FED9
:1015F0000646686000986421081AFEF78BFE0022F8
:101600000B4BFEF70FFE02460B4620460199FEF7F4
:10161000A1FDFEF7A1FE0146A86006480268966398
:1016200000684163FEBD000024000020000000208F
:10163000000059404800002010B504210348FFF77E
:10164000CFFD00210148FFF7CBFD10BD4800002071
:1016500010B504210348FFF7E5FD00210148FFF71D
:10166000E1FD10BD4800002030B587B01421684668
:10167000FEF764FD12484269012149040A434261B0
:101680004069104C08400925ED06059001222146CD
:101690002846FFF74EF9009401200024019002949F
:1016A000694628460394FFF797F84120000100900F
:1016B0000194694602942846FFF78EF807B030BDC2
:1016C000001002400102000010B58AB00024079407
:1016D0001C2168460894FEF731FD1C481A49016038
:1016E0002F2184604160046164218461C160FFF73F
:1016F0004BFD002801D0FEF7EDFE079407A9134823
:101700000894FFF78DFC002801D0FEF7E3FE60206F
:101710000090019402940022694604940B48FFF75C
:10172000CBFC002801D0FEF7D5FE0422694607480D
:10173000FFF7C2FC002801D0FEF7CCFE0348FFF7FC
:1017400093FC0AB010BD00000004004048000020D7
:1017500010B50C480A490160E121490241600021AD
:101760008160C16001618161C1610C2201624261DD
:101770004162FFF719FE002801D0FEF7ABFE10BD55
:1017800000380140D8000020704700008307FF2286
:10179000DB0E9A408907090E994000280BDA0007F2
:1017A000000F0838830808489B001818C369934342
:1017B0000B43C3617047830804489B001B181868DB
:1017C000904308431860704700ED00E000E400E03B
:1017D00070B50A4C4021201DFEF7B0FC00212046C8
:1017E0004030017122681268136820252B43136072
:1017F000236810221B681A62417170BD88000020A6
:1018000070470000F8B529484079022847D1274D94
:10181000274C403D2079691D00283ED00020231828
:101820000A5C1B799A4238D1401CC0B20828F6D312
:10183000012628797702032806D010280CD0112819
:101840000DD0122826D117E0092026700022394633
:10185000C006FFF76EF81DE0687B207401E0A87BEE
:10186000A074FFF79DFEE068FEF7AEFE0920394642
:10187000C006FFF75AF80DE0E87B002810D0FFF70C
:10188000DBFE667409203946C006FFF74EF8E068B3
:10189000FEF79AFE012000F00FF8E86C8047F8BDD3
:1018A000FFF7D6FE00206074ECE70000C8000020BF
:1018B000240000207047000010B586B0FC246B4661
:1018C0001C7010245C7003249C700124DC700024C4
:1018D0000C491C715C710A1D9871072014781C5406
:1018E000401C521C0F28F9DB0A7CDA738A7C1A74BC
:1018F000497C597404481221826C1846904706B0FE
:1019000010BD0000240000208800002010B503480E
:101910000168491C0160FFF719F810BD180000208C
:1019200070B594B030216846FEF708FC00240E9490
:10193000139410200994022504900D940F9405200F
:10194000129401260095C0040C94109403960A90FA
:10195000119408950B946846FFF7A0F907200C90A6
:101960000E9401210D950F940CA8FFF7AFF8109677
:1019700010A81296FFF736F814B070BD134801682E
:101980000122114301604168114A11404160016820
:10199000104A1140016001680122920491430160E4
:1019A00041683F22120491434160C16A090909015B
:1019B000C162016BFF22143291430163416B4908FC
:1019C000490041630021816070470000001002401F
:1019D0000CB8FF08FFFFF6FE70B50268174B184EF3
:1019E000984201D0B04203D17024A2434C682243F4
:1019F000144C154D984208D0B04206D0134EB04258
:101A000003D0A04201D0A84204D103263602B2433B
:101A1000CE6832438026B2434E69324302608A6800
:101A2000C2620A688262984203D0A04201D0A842F2
:101A300001D1096901630121416170BD002C0140A0
:101A400000040040004401400048014000200040E4
:101A500010B50123046A8B409C430462036A8A40E8
:101A60001343036210BD0000F0B5026A5208520031
:101A70000262056A436882697024A24392080C6876
:101A800092001443022295438A68134E2A43114D53
:101A9000A84204D0B04202D0104FB84206D1082765
:101AA000BA43CF681743042297433A46A84204D06A
:101AB000B04202D0094DA84206D103252D02AB4306
:101AC0004D691D438B692B434360846149684163C1
:101AD0000262F0BD002C014000440140004801407A
:101AE00070B5026A10239A430262046A43688269ED
:101AF00073252D02AA430D682D021543202294431D
:101B00008A6812012243104CA04208D11446CA68C8
:101B10008026B443120122434024A24305E00B4C2B
:101B2000A04202D00A4CA04208D10324A402A3433D
:101B30004C69A4001C438B699B002343436085616F
:101B400049688163026270BD002C0140004401407D
:101B50000048014070B5026AFF2301339A430262D4
:101B6000046A4368C2697025AA4392080D6892000E
:101B700015430122520294438A6812022243104CF8
:101B8000A04207D1C414A243CC6824022243061504
:101B9000B24305E00B4CA04202D00B4CA04208D14E
:101BA00003242403A3434C6924011C438B691B01B8
:101BB00023434360C5614968C163026270BD000090
:101BC000002C0140004401400048014030B5026A49
:101BD00001231B039A430262056A4268C3697324A6
:101BE0002402A3430C6824021C4301235B039D438E
:101BF0008B681B032B430A4DA84205D0094DA84210
:101C000002D0094DA84205D10125AD03AA434D6973
:101C1000AD012A434260C46149680164036230BD7A
:101C2000002C014000440140004801400D4810B51F
:101C30000246403A4479111D13680279002C08D0FD
:101C4000012C05D11B689B8C53540179491C0171EF
:101C500010BD1B689B8C53540179491C01710121F3
:101C6000417110BDC800002010B5818CC90707D094
:101C700001684A6801235B049A43836A1A434A60F5
:101C8000818C890707D501684A6801231B049A43A0
:101C9000C36A1A434A60818C490707D501684A68BC
:101CA00001239B049A43036B1A434A60818C090702
:101CB00007D501684A680123DB039A43436B1A4343
:101CC0004A60818CC90607D50268916801231B030D
:101CD0009943836B19439160818C890607D501680C
:101CE0008A6801235B039A43C36B1A438A60818C21
:101CF000490612D503685A6801210905046C8A4314
:101D000022435A60026C8A4207D102685168032359
:101D10005B059943436C19435160818C090607D5D3
:101D200001684A680123DB04806C9A4302434A60DD
:101D300010BD0021C16620226030427282720172A1
:101D40000846704710B5406A0022014640314A8378
:101D50004A82FFF79DFA10BD01680A68FF2321330C
:101D60009A430A6001688A68520852008A602021FA
:101D700060308172704710B501680A6840239A4349
:101D80000A60202269210A54FFF7E1FB002010BD00
:101D900070B50246403203466033948B9D7A0168E9
:101DA000222D05D08869082210438861022070BD69
:101DB000898C012685683603B54202D10569002D5C
:101DC0000BD02140446D651C45652170518B491E27
:101DD0000904090C518307D015E0456D2140298085
:101DE000416D891C4165F1E701680A68FF242134CF
:101DF000A2430A6001688A68520852008A60202162
:101E00009972FFF73FFB002070BD0000F8B5044653
:101E10002369A268E6691A436369102133430020ED
:101E200026681A4333680546394F3B4013433360F5
:101E300023685A6803263603B243E66832435A6081
:101E4000236AA26926681A43B3680B273F02BB4383
:101E50001343B3602F4A126B9207920F06D0012AE8
:101E600008D0022A08D0032A07D101E0002104E0AB
:101E7000022102E0042100E008210122E369D203EB
:101E8000934224D100290CD002290DD0042913D06B
:101E9000082917D00125010909010007400F08434F
:101EA00032E0FEF7AFFE09E061681B4A480880187F
:101EB000FEF716F980B2EEE7FEF7B4FE6168400067
:101EC0004A08F4E76168012248081204EFE7002994
:101ED00008D0022909D004290BD008290ED00125E9
:101EE0002846F8BDFEF78EFE05E061680B4A4808FB
:101EF00006E0FEF797FE61684A0801E0616848085D
:101F00008018FEF7EDF880B22168C860E8E70000AD
:101F1000F369FFFF001002400024F40000127A0071
:101F20006921095C212901D0022070470246403214
:101F3000518A002912D0012381681B03994202D1E2
:101F40000169002915D0C16C4B1CC3640068097875
:101F50000185508A401E50820020704701680A683F
:101F600080239A430A60006801684022114301609F
:101F7000F2E7C16C03680988C905C90D1985C16CF0
:101F8000891CC164E5E7FFB581B017460E460446DB
:101F90000A9D1DE0681C1BD0002D05D0FEF7D0FC6B
:101FA0000499401AA84213D920680168FF22A1327F
:101FB00091430160206881684908490081602020C0
:101FC00060346072A07200202072032005B0F0BD62
:101FD0002068C1693046884304D00020B842D9D077
:101FE0000020F3E70120F9E710B5FFF71FFE0248D4
:101FF000FFF750F910BD0000D800002010B50446CE
:1020000003480A4600680A232146FFF73CFA10BD40
:10201000880000202021020C01D010211046020A65
:1020200001D010460839020901D01046091F820864
:1020300001D01046891E420801D0881E7047081A38
:10204000704702E008C8121F08C1002AFAD1704781
:102050007047002001E001C1121F002AFBD1704728
:10206000FEF77CFCFFF75CFCFFF7FEFAFFF72CFBAA
:10207000FFF76EFBFEF710FA254C264D264E022781
:10208000206A8047FFF766FA2878002805D00128E3
:1020900010D0022821D000202BE0204830602048BA
:1020A000B0642048F064FFF793FB01202870A0691A
:1020B000804723E0FEF7A6FA00280CD01B481A49F7
:1020C0000068FEF70DF8002905D12078002802D11C
:1020D000E169022088472F7010E02078002807D09F
:1020E000124813490068FDF7FBFF002903D005E003
:1020F0000120287002E0E16901208847306800680B
:10210000C069C006BCD5044840304771B8E700003C
:10211000240000201400002088000020D8000020A7
:10212000FD1F0008D11700088813000018000020C8
:1021300030750000000000000000000001020304F0
:102140000607080900000000010203046C210008D2
:102150000000002024000000422000089021000818
:102160002400002044050000522000080000000068
:102170000000000000000000C515A61A004B120068
:1021800000000000000000000000000000127A00C3
:04000005080000B13E
:00000001FF
