:020000040800F2
:1000000040050020010100085B100008410F0008B6
:10001000591000086D010008791300080000000065
:100020000000000000000000000000007F10000839
:100030006F010008000000007D100008811000081A
:100040001B0100081B0100081B0100081B01000820
:100050001B0100081B0100081B0100081B01000810
:100060001B0100081B0100081B0100081B01000800
:100070001B0100081B0100081B0100081B010008F0
:100080001B0100081B0100081B0100081B010008E0
:100090001B0100081B0100081B0100081B010008D0
:1000A0001B0100081B0100081B0100081B010008C0
:1000B0001D1100081B0100081B0100081B0100089E
:1000C0001B0100081B0100081B0100081B010008A0
:1000D0001B01000871130008751300081B010008BC
:1000E0001B0100081B0100081B010008DFF80CD0F1
:1000F00000F02AF800480047991300084005002046
:100100000648804706480047FEE7FEE7FEE7FEE7B1
:10011000FEE7FEE7FEE7FEE7FEE7FEE7D510000894
:10012000ED000008D2B201E000F8012B491EFBD21D
:1001300070470022F6E710B513460A4604461946F2
:10014000FFF7F0FF204610BD064C074D06E0E068C3
:1001500040F0010394E8070098471034AC42F6D30E
:10016000FFF7C8FFD4130008F4130008FEE7704738
:10017000704700002DE9F84FDFF890A100220AF146
:10018000040B144601274FF00F090BF1040E00BFBA
:100190000B6807FA04F52B40AB4274D1DFF870C14D
:1001A0004E68A6EB0C0866452BD00DDC032E34D030
:1001B00005DC36B3012E19D0022E2FD11BE0112EF3
:1001C00016D0122E2AD119E0B8F5881F19D006DCF6
:1001D000B8F5803F15D0B8F5801F1FD111E0B8F5F4
:1001E000001F0ED0B8F5041F18D10AE0CA6815E048
:1001F000CA68121D12E0CA6808320FE0CA680C32E1
:100200000CE08A682AB1012A4FF0080203D0456148
:1002100004E0042202E0056100E00022FF2B01D887
:10022000064601E000F104064FEA840501D9A5F174
:100230002005D6F800C009FA05F82CEA080C02FAE5
:1002400005F54CEA050CC6F800C04D68ED0057D521
:10025000304DAE6946F00106AE61AD6924F003068B
:1002600005F0010500952C4D06EB050CDCF8085057
:10027000A6074FEA167809FA08F6B543274EB042AA
:1002800002D1002610E03BE0254EB04201D101260C
:100290000AE0244EB04201D1022605E0224EB042CF
:1002A00001D1032600E0042606FA08F62E43CCF816
:1002B00008604D68DAF80060ED03554601D51E432D
:1002C00000E09E432E604D68DBF80060AD035D46A4
:1002D00001D51E4300E09E432E604D68DEF80060AD
:1002E000ED02754601D51E4300E09E432E604D6829
:1002F000AD020E4D2E6801D51E4300E09E432E60D8
:10030000641C102CFFF444AFBDE8F88F00040140DA
:1003100000001110001002400000014000080140E0
:10032000000C014000100140001401400C04014089
:10033000014880687047000008000020024881687A
:10034000027811448160704708000020074810B50A
:10035000016841F010010160032000F073F80020F3
:1003600000F006F800F024F8002010BD0020024044
:1003700070B50D4D04464FF47A712878B1FBF0F05A
:100380000A490968B1FBF0F000F0FCFA48B9102CFA
:1003900007D200222146501E00F034F800206C6085
:1003A00070BD012070BD0000080000201400002076
:1003B0000C4808B5816941F001018161816901F052
:1003C00001010091C16941F08051C161C06900F033
:1003D000805000900448416821F0E06141F00071D4
:1003E000416008BD001002400000014000F01F0203
:1003F000012191404009800000F1E020C0F8001187
:1004000070470000F0B40E4B1B680C46C3F3022388
:10041000C3F10705042D00D90425191D072901D2B0
:10042000002300E0DB1E012606FA05F1491E2140EB
:1004300099409E40761E16403143F0BC00F00EBE3F
:100440000CED00E0064900F0070208684FF6FF03D4
:10045000184040EA0220034A104308607047000039
:100460000CED00E00000FA052DE9F047DFF85481BB
:1004700005460E46D8F8000000F00700B0420CD246
:10048000D8F8001021F007013143C8F80010D8F85F
:10049000000000F00700B0426FD128684A4C810785
:1004A00012D5400703D5606840F4E06060602878AA
:1004B000000703D5606840F4605060606068A96818
:1004C00020F0F000084360602878C00744D06868D6
:1004D000012816D02168022816D0890700294CDA95
:1004E000616821F0030101436160FFF721FF696842
:1004F000074641F2883001290ED00229814618D0E2
:1005000026E021688903E9E78901E7E7FFF710FFA3
:10051000C11B494501D918E081466068C0F38100DC
:100520000128F3D118E000BFFFF702FFC11B4945C6
:100530000BD86068C0F381000228F5D10CE000BF41
:10054000FFF7F6FEC11B494502D90320BDE8F0873D
:10055000606810F00C0FF3D1D8F80010404601F09D
:100560000701B1420BD9016821F007013143016055
:10057000006800F00700B04201D00120E6E72878CB
:10058000400705D56068E96820F4E06008436060D2
:100590002878000706D56068296920F4605040EA91
:1005A000C100606000F036F86168084AC1F30311C9
:1005B000515CC840064908600020FFF7D9FE0020C2
:1005C000C4E700000020024000100240BC130008F5
:1005D000140000200448054900684968044AC1F332
:1005E0000221515CC84070471400002000100240F6
:1005F000CC1300080448054900684968044AC1F35F
:10060000C221515CC8407047140000200010024015
:10061000CC13000812A185B00FC98DE80F0014A0FB
:10062000144A006804905168134801F00C03042B2D
:1006300010D0082B0ED1C1F38343C9031DF803006A
:100640000AD5516804AAC1F34041515C0A4A50439B
:10065000B0FBF1F005B0704708494843FAE70000E5
:1006600002030405060708090A0B0C0D0E0F1010F3
:10067000010200000010024000127A0000093D0053
:100680002DE9F84F04460078B94DC00748D0686896
:10069000C0F38100012807D06868C0F381000228F8
:1006A00009D16868C00306D52868800338D560681A
:1006B00000286FD034E06068B0F5803F0BD010B1F7
:1006C000B0F5A02F11D0286820F480302860286869
:1006D00020F4802002E0286840F4803028606068C0
:1006E00088B1FFF725FE064609E0286840F480201F
:1006F0002860F0E7FFF71CFE801B642875D8286887
:100700008003F7D50CE0FFF713FE064605E000BFB7
:10071000FFF70EFE801B6428F0D828688003F7D40A
:100720002078944E80074FF001094FF000083BD528
:10073000686810F00C0F07D06868C0F381000228C9
:1007400009D16868C00306D42868800714D52069D9
:1007500001281FD110E02069B0B1C6F80090FFF762
:10076000E7FD074605E000BFFFF7E2FDC01B0228DA
:10077000C4D828688007F7D52868616920F0F80098
:1007800040EAC10028600FE0C6F80080FFF7D0FD06
:10079000074606E0E9E000BFFFF7CAFDC01B0228DC
:1007A00023D828688007F7D4207800072CD5724812
:1007B000A169D9B1C0F80090FFF7BAFD074604E07F
:1007C000FFF7B6FDC01B02280FD8686A8007F7D56F
:1007D0006A484FF4FA510068B0FBF1F0009000BF96
:1007E0000098411E0091FAD20EE080E0C0F800802F
:1007F000FFF79EFD074604E0FFF79AFDC01B0228A5
:1008000075D8686A8007F7D42078400760D5E86912
:100810000027C00008D4E86940F08050E861E8692A
:10082000012700F08050009055480168C90513D495
:100830000168834641F480710160FFF779FD8246CB
:1008400006E000BFFFF774FDA0EB0A0064284ED855
:10085000DBF80000C005F5D5E06801280AD008B132
:10086000052813D0286A20F001002862286A20F0A9
:10087000040002E0286A40F001002862E06841F2CA
:10088000883B98B1FFF754FD82460BE0286A40F0A0
:1008900004002862EEE700BFFFF74AFDA0EB0A0163
:1008A00059455AD8286A8007F6D50CE0FFF740FD75
:1008B000824605E0FFF73CFDA0EB0A0159454CD804
:1008C000286A8007F6D41FB1E86920F08050E861FB
:1008D000E06988B36968C1F38101022945D0022823
:1008E000C6F8608004D0FFF723FD044638E034E00A
:1008F000FFF71EFD074604E0FFF71AFDC01B0228A4
:100900002BD828688001F7D4206AB0F5803F05D144
:100910006868A16820F4003008436860D4E90801E1
:100920000843696821F4741108436860C6F8609050
:10093000FFF7FEFC044606E015E000BFFFF7F8FCF9
:10094000001B022809D828688001F7D50BE000BFFA
:10095000FFF7EEFC001B022802D90320BDE8F88F48
:1009600028688001F4D40020F8E70120F6E70000B1
:100970000010024000004242800442421400002065
:100980000070004010B5401EB0F1807F01D30120FF
:1009900010BD4FF0E02460610F21601700F05EFB96
:1009A0000020A06107202061002010BD7047704723
:1009B00030B590F83C20012A20D0012280F83C205C
:1009C000022380F83D3003685C6824F070045C60AA
:1009D00003685C680D682C435C6003689C6824F0C5
:1009E00080049C6003689C6849680C439C6080F8A4
:1009F0003D20002180F83C10084630BD022030BD6B
:100A000010B5040003D094F83D0010B107E00120B8
:100A100010BD002084F83C00204600F00DF80220B4
:100A200084F83D00211D206800F07EFB012084F841
:100A30003D00002010BD000008B50068B0F1804FF7
:100A400012D10A48C16941F00101C161C0690022A7
:100A500000F00100009011461C20FFF7D3FCBDE818
:100A600008401C20FFF7C2BC08BD00000010024077
:100A70000168CA6842F00102CA600068016841F07A
:100A8000010101600020704770B5044690F83C00F9
:100A9000012817D0012584F83C50022084F83D003D
:100AA0002068826822F0770222F47F428260086820
:100AB000502837D00DDC202859D005DC88B3102809
:100AC00041D151E0022070BD302853D040283AD1A6
:100AD0003FE060282ED070280BD0B0F5805F03D0A7
:100AE000B0F5005F2FD110E02068816821F0070188
:100AF00015E0CB68D1E90121206800F04BFB2168AB
:100B0000886840F0770088601DE0CB68D1E901215A
:100B1000206800F03FFB2068816841F480418160DB
:100B200011E01EE0CA684968206800F045FB5021CA
:100B3000206806E0CA684968206800F04EFB602122
:100B4000206800F031FB84F83D50002084F83C0020
:100B500070BDCA684968206800F02EFB40212068FB
:100B6000EFE700212068ECE710212068E9E7202169
:100B70002068E6E730212068E3E7704770B5044657
:100B8000006801694FF00005C943890715D4C168A1
:100B9000C943890711D4E91E01610120207720682B
:100BA00080698007204602D0FFF7E7FF04E000F0ED
:100BB00098F8204600F096F8257720680169C94327
:100BC000490717D4C168C943490713D46FF004011A
:100BD0000161022020772068806910F4407F204660
:100BE00002D0FFF7CAFF04E000F07BF8204600F0D7
:100BF00079F8257720680169C943090716D4C168C7
:100C0000C943090712D46FF008010161042020775D
:100C10002068C0698007204602D0FFF7AEFF04E0DD
:100C200000F05FF8204600F05DF825772068016944
:100C3000C943C90617D4C168C943C90613D46FF0A4
:100C400010010161082020772068C06910F4407FFE
:100C5000204602D0FFF791FF04E000F042F8204662
:100C600000F040F8257720680169C943C90708D119
:100C7000C168C943C90704D1891E0161204600F03B
:100C800033F820680169C943090609D4C168C9431A
:100C9000090605D46FF0800101612046FFF786FE4A
:100CA00020680169C943490609D4C168C943490696
:100CB00005D46FF040010161204600F01DF8206866
:100CC0000169C94389060BD4C168C943890607D4A1
:100CD0006FF0200101612046BDE87040FFF767BE5C
:100CE00070BD70477047000002480168491C0160F0
:100CF0007047000000000020704770B5040004D069
:100D000094F83900002510B106E0012070BD84F888
:100D10003850204600F022F8242084F8390020685A
:100D2000C16821F40051C160204600F069FA2068D2
:100D3000016921F4904101612068416921F02A0193
:100D400041612068C16841F40051C160E563202021
:100D500084F8390084F83A00002070BD70B586B080
:100D600000240094019402940394334E03683349A1
:100D700002200322324DB34229D18B6943F48043D0
:100D80008B618B6903F4804304938B6943F0040304
:100D90008B618969039201F0040104910102CDE99C
:100DA000001069462846FFF7E5F92815CDE900044B
:100DB000694628460294FFF7DDF9002211462520F6
:100DC000FFF720FB2520FFF711FB1E482CE01E4EED
:100DD000B3422ED1CB6943F40033CB61CB6903F42A
:100DE000003304938B6943F004038B618969039298
:100DF00001F0040104910421CDE900106946284660
:100E0000FFF7B8F90820CDE90004694628460294A6
:100E1000FFF7B0F9002211462620FFF7F3FA26204B
:100E2000FFF7E4FA074840300068C16841F020014C
:100E3000C16006B070BD00000038014000100240E3
:100E400000080140580000200044004030B51C4913
:100E50000A6810684FF00103C043840619481AD489
:100E60008578194C012D02D0022D0BD00FE0022500
:100E70008570D56845F01005D5600A685268227003
:100E8000037004E055680278A554521C02700C6887
:100E90006FF0200222600A681468E443E4060ED46E
:100EA000D46824F01004D4600A68D46824F02004C4
:100EB000D46083700868C16841F02001C16030BD12
:100EC0005800002004000020D8000020194910B567
:100ED0000A681068C043830617481AD4C478174BB1
:100EE000012C02D0022C0BD00FE00224C470D46875
:100EF00044F01004D4600A6852681A70012203E0BA
:100F0000546842789C54521C42700B686FF0200267
:100F10001A600A681368DB43DB060AD4D36823F03F
:100F20001003D3600968CA6822F02002CA60032156
:100F3000C17010BD98000020040000200A010020AC
:100F4000FEE700000D4808B5816941F0100181619C
:100F5000816901F010010091816941F020018161F6
:100F6000816901F020010091816941F004018161F2
:100F7000806900F00400009008BD000000100240ED
:100F800010B586B00024174800940194029403948D
:100F900004944FF080410594016047F6FF41C0E999
:100FA000011444F61F61C0E903148461FFF728FDB2
:100FB00008B1FFF7DDF84FF480500090694609480A
:100FC000FFF762FD08B1FFF7D3F8049404A90548C0
:100FD0000594FFF7EDFC002801D0FFF7C9F806B033
:100FE00010BD0000180000200C4810B50A4901602F
:100FF0004FF4E1314160002181600C22C160C0E901
:1010000004128161C161FFF778FE002803D0BDE8BA
:101010001040FFF7ADB810BD003801405800002067
:101020000C4810B50A4901604FF4E13141600021DC
:1010300081600C22C160C0E904128161C161FFF7C7
:101040005CFE002803D0BDE81040FFF791B810BD4A
:101050000044004098000020FEE770470907090E91
:10106000002806DA00F00F0000F1E02080F8141DDF
:10107000704700F1E02080F8001470477047704717
:10108000FFF75CB930B58FB028216846FFF751F8FB
:1010900014210AA8FFF74DF801210804CDE900103A
:1010A0000024029402250491CDE907504FF4E0108A
:1010B00009906846FFF7E4FA0F20CDE90A056802B7
:1010C000CDE90C4002210AA80E94FFF7CDF90FB02C
:1010D00030BD00000D48016841F001010160416828
:1010E0000B4A1140416001680A4A114001600168E1
:1010F00021F480210160416821F4FE0141604FF438
:101100001F0181600449C00308607047001002405D
:101110000000FFF8FFFFF6FE08ED00E00148FFF7D2
:101120002DBD000018000020F0B50268164B174CCA
:10113000174D4FF08047984205D0B84203D0A042E7
:1011400001D0A84203D122F070064A683243984287
:1011500005D0B84203D0A04201D0A84203D122F466
:101160004074CA68224322F080044A692243026024
:101170008A68C2620A688262984201D10969016381
:1011800001214161F0BD0000002C0140000400403D
:101190000008004010B5846842EA032224F47F442A
:1011A0000A432243826010BD826822F070020A4323
:1011B00042F007018160704710B5036A046A24F0A9
:1011C00001040462846924F0F00444EA021423F068
:1011D0000A020A438461026210BD10B5036A23F05B
:1011E000100303628369046A23F4704343EA023202
:1011F00024F0A00343EA01118261016210BD0000E6
:101200002DE9F041044600680169E26821F440518B
:10121000114301612169A06808436169084321689D
:10122000CA6841F20C639A430243CA60206841696C
:10123000A26921F44071114341614C492068642541
:10124000322688423CD1FFF7D5F900EBC00101EB13
:10125000001061688900B0FBF1F7FFF7CBF900EBF4
:10126000C00101EB00106168B0468900B0FBF1F0ED
:10127000B0FBF5F06FF01801484307EB800106EB77
:101280000110B0FBF5F000F0F006FFF7B3F900EB4A
:10129000C00101EB001061688900B0FBF1F0B0FB08
:1012A000F5F006EB0016FFF7A5F900EBC00101EB26
:1012B000001061688900B0FBF1F7FFF79BF93BE094
:1012C000FFF788F900EBC00101EB001061688900AD
:1012D000B0FBF1F7FFF77EF900EBC00101EB001066
:1012E0006168B0468900B0FBF1F0B0FBF5F06FF03B
:1012F0001801484307EB800106EB0110B0FBF5F045
:1013000000F0F006FFF766F900EBC00101EB0010FA
:1013100061688900B0FBF1F0B0FBF5F006EB001658
:10132000FFF758F900EBC00101EB0010616889007C
:10133000B0FBF1F7FFF74EF900EBC00101EB001035
:1013400061688900B0FBF1F0B0FBF5F06FF01801B7
:10135000484307EB800108EB0110B0FBF5F0216872
:1013600000F00F0030448860BDE8F0810038014093
:10137000FFF76CBDFFF7AABDFEE702E008C8121F29
:1013800008C1002AFAD170477047002001E001C16E
:10139000121F002AFBD17047FEF7D8FFFFF772FE3D
:1013A000FFF7D0FDFFF7ECFDFFF71EFEFFF738FE5D
:1013B0000148FFF75DFBFEE7180000200000000079
:1013C00000000000010203040607080900000000F5
:1013D00001020304F41300080000002018000000BC
:1013E0007A1300080C1400081800002028050000DB
:1013F0008A13000800000000000001010100000045
:0C140000100000000000000000A24A04E0
:04000005080000ED02
:00000001FF
