:020000040800F2
:100000007008002001010008D31A000859190008DF
:10001000D11A0008FD070008F121000800000000C7
:10002000000000000000000000000000711D00083A
:10003000E108000800000000FD1C0008891E0008FF
:100040001B0100081B0100081B0100081B01000820
:100050001B0100081B0100081B0100081B01000810
:100060001B0100081B0100081B0100081B01000800
:100070001B0100081B0100081B0100081B010008F0
:100080001B0100081B0100081B0100081B010008E0
:100090001B0100081B0100081B0100081B010008D0
:1000A0001B0100081B0100081B0100081B010008C0
:1000B000311F00081B0100081B0100081B0100087C
:1000C0001B0100081B0100081B0100081B010008A0
:1000D0001B010008E9210008ED2100081B010008B0
:1000E0001B0100081B0100081B010008DFF80CD0F1
:1000F00000F03AFB004800479D2E000870080020E1
:100100000648804706480047FEE7FEE7FEE7FEE7B1
:10011000FEE7FEE7FEE7FEE7FEE7FEE7E91E000872
:10012000ED000008202A04DB203A21FA02F0002129
:10013000704721FA02F3D040C2F1200291400843F7
:100140001946704710B5431A934209D2831888188C
:1001500003E010F8011D03F8011D521EF9D210BD75
:1001600040EA01039B0703D009E008C9121F08C039
:10017000042AFAD203E011F8013B00F8013B521EB9
:10018000F9D210BDD2B201E000F8012B491EFBD21A
:1001900070470022F6E710B513460A460446194692
:1001A000FFF7F0FF204610BDCAB2401E10F8011F35
:1001B0008A4202D00029F9D100207047421C10F871
:1001C000011B0029FBD1801A7047034611F8012B4F
:1001D00000F8012B002AF9D1184670472DE9FE4F8F
:1001E000804681EA0300C00F0C46009021F00041D8
:1001F00023F00045B8EB0200A94105D24046214654
:1002000090461C460B46024623F00040104347D060
:10021000270DC7F30A00C3F30A510290401A019058
:1002200040286BDAC3F3130040F4801B0098924619
:1002300020B10023D2EB030A63EB0B0B0198594664
:10024000C0F14002504600F08AF906460D4650467D
:100250005946019A00F092F910EB08006141002420
:1002600087EA115284EAE7731A4340D0009A62B3D6
:10027000019A012A4FEA075215DC001B61EB0201CB
:100280004FF0004202EA0752CDE90042001C41F55E
:10029000801132462B4600F092F903B0BDE8F08F92
:1002A00040462146F9E7001B61EB0201001C41F5C5
:1002B000801300185B412018A2F5001747EB0301DB
:1002C00040EAD570B6196D4111E06D084FEA360667
:1002D00045EAC0754FEA0752001B61EB0201001CA2
:1002E00041F5801149084FEA30000019514132466A
:1002F0002B4603B0BDE8F04F00F052B90098012240
:1003000040000023D0EB020263EBE073009821462B
:100310004FEAE074B8EB000061EB0401E9E783F019
:1003200000435BE781F0004158E72DE9FE4F81EA89
:10033000030404F0004421F0004100944FF0000B4E
:1003400023F0004350EA01045ED052EA03045BD07C
:10035000C3F30A54C1F30A552C44A4F2F3340194B4
:10036000A0FB0254C1F3130141F48011C3F3130342
:1003700043F4801301FB024400FB034E840A970AF6
:1003800044EA815447EA8357A4FB076802958D0A23
:1003900005FB07854FEA932C04FB0C542705029DAF
:1003A0004FEA065847EA1637B5EB08056EEB070C1F
:1003B000870E920E47EA811742EA8312A7FB0201D9
:1003C000B6EB0B0164EB00042B0D43EA0C335E1813
:1003D00044EB1C50DA465146E7FB0201C5F3130417
:1003E0004FEA0B3343EA14534FEA0432019C43EAC9
:1003F0000603A4F10C040294009CCDE900B400F0C3
:10040000DEF803B0BDE8F08F00200146F9E70EB535
:10041000C10F80EAE0700844CA07002140F233436C
:100420008DE80E000A460B4600F0C9F803B000BD87
:1004300070B5C1F30A5201F000450024C1F3130165
:1004400040F2FF3341F480119A4201DA002070BD7E
:1004500040F233439A42A2F2334203DC5242FFF7A6
:1004600061FE00E090402C43F1D0404270BD00009E
:1004700030B5041E71F1000404DB4FF0004440422B
:1004800064EB0101141E73F1000405DB1C464FF000
:100490000043524263EB04038B4208BF824230BDEB
:1004A00030B5041E71F1000404DB4FF000444042FB
:1004B00064EB0101141E73F1000405DB1C464FF0D0
:1004C0000043524263EB0403994208BF904230BD9F
:1004D00030B50B46014600202022012409E021FA14
:1004E00002F59D4205D303FA02F5491B04FA02F511
:1004F0002844151EA2F10102F1DC30BD2DE9F05FA8
:100500000546002092469B46884606468146402482
:100510001BE02846414647462246FFF703FE534666
:100520005A46C01A914110D311461846224600F08F
:1005300016F82D1A67EB01084F46224601200021CC
:1005400000F00DF817EB00094E41201EA4F1010444
:10055000DFDC484631462A464346BDE8F09F202A64
:1005600004DB203A00FA02F1002070479140C2F10A
:10057000200320FA03F3194390407047202A06DB3A
:10058000CB17203A41FA02F043EAE07306E041FA61
:1005900002F3D040C2F1200291400843194670474F
:1005A00010B5141E73F1000408DA401C41F100017B
:1005B00092185B411A4301D120F0010010BD2DE9D2
:1005C000F04D92469B4611B1B1FA81F202E0B0FAC9
:1005D00080F220329046FFF7C2FF04460F4640EA01
:1005E0000A0041EA0B0153465A46084313D011460C
:1005F00053EA010019D0C8F140025046FFF792FDBE
:1006000005460E46504659464246FFF7A8FF0843A6
:1006100005D0012004E020463946BDE8F08D0020D9
:10062000054346EAE0762C4337430A986305E40A1B
:10063000A0EB08000022FD0A44EA47540A3002D524
:1006400000200146E9E7010510196941DDE9084587
:1006500000196941BDE8F04DA2E72DE9F04D81EAAE
:10066000030404F0004B21F0004514464FF0000A4B
:1006700023F0004150EA050220D054EA01021DD0C7
:10068000C5F30A570246C5F31303C1F31300C1F3C0
:100690000A5640F4801543F48013A7EB0608101B9C
:1006A000D64608F2FD3873EB050002D308F10108C5
:1006B00001E092185B41B8F1000F03DA0020014617
:1006C000BDE8F08D00204FF48011064684460EE010
:1006D000171B73EB050705D3121B63EB05030643DA
:1006E0004CEA010C49084FEA300092185B4150EA8D
:1006F0000107EDD152EA030012D082EA040083EA36
:100700000501084305D0101BAB4106D2012200238E
:1007100006E000224FF0004302E06FF001025310A8
:100720001AEB06004CEB085110EB0A0041EB0B01F1
:10073000BDE8F04DFFF734BFC1F30A52C1F3130116
:1007400040F2FF3341F480119A4202DA0020014660
:10075000704740F233439A42A2F2334202DC5242E3
:10076000FFF7E0BCFFF7FBBE064C074D06E0E06874
:1007700040F0010394E8070098471034AC42F6D3E8
:10078000FFF7B8FC90350008B035000810B5104CE4
:100790000020104984F830000F4801600F49C0F86C
:1007A00088100F49C0F88C1001F0B4F90E480D49BB
:1007B00001600E49C0F888100D49C0F88C1001F096
:1007C000C3F90C482060BDE810400B4800F0F4BDB0
:1007D000380200209801002078000020F521000850
:1007E000151B0008D8010020080100200D22000878
:1007F000491B00084509000838000020FEE770B5D5
:100800000546C268002014466B6803E06400401C83
:10081000202804DCE61A8E42F8D3202802DD4FF0AF
:10082000FF3070BDA2420CD2204602F089FBD5E910
:1008300000120646FFF786FC286802F007FB2E60D0
:10084000EC60002070BD00000A4908B5A1F10A0063
:1008500001F094F9009028B1074A01790068D2F8B4
:1008600088209047684600F04DF84FF4C87000F0BB
:1008700039F808BD5A3500080801002070B5441C3D
:100880000B2002F05DFB104A0546506802EB800029
:10089000856000202B1814F8011B401CD970082813
:1008A000F8DB2078287060786870A078A8705168AC
:1008B000064C491C5160626805A090472846A16813
:1008C000BDE87040084700003802002018020020F0
:1008D0004F6E6C696E655F44657669636500000004
:1008E00070470000054910B50B68054A13600B6896
:1008F00014681B1B8342FAD310BD000008000020BF
:100900001800002010B504460068006802F09EFA46
:10091000206802F09BFA0020206010BD05480449C1
:10092000016005494160054981600549C160704722
:100930004908000818020020311E0008751D000833
:10094000011D00082DE9FF41434EDFF8108196F8A4
:100950008500022815D098F8000001287AD1404877
:100960004FF4FA610068B0FBF1F201FB12000028BD
:1009700070D1D6F8882004B01021BDE8F041394884
:100980001047384D3079341D1035022805D0364FC8
:10099000122836D001283FD051E0204600F06AF8F6
:1009A0000B2802D12046FFF769FFFC208DF80000DC
:1009B0000E208DF8010001208DF802008DF8030053
:1009C00003208DF804006A68052005EB82020021EF
:1009D00052686B46CC1C491C145D1C54401CC0B2B0
:1009E000C9B20D28F6D3FF208DF80D008DF80E004A
:1009F0008DF80F000A23102269461C4800F0CAFE39
:100A00001DE0204600F036F80B2818D005EB8000DA
:100A1000E17A826891700FE0204600F02BF80B28F5
:100A20000DD005EB8000E17A826891708268617A6E
:100A300011708268A17A5170B96880688847D6F8C9
:100A40008C0080470749002088F800000860486053
:100A50008860C860BDE8FF81780000201C0000208D
:100A60000800002028020020180200209801002021
:100A700070470000F0B5104C0346401C6568B5B1E6
:100A8000002212E004EB82060021B66801F1030C9B
:100A900010F8017B16F80CC0674502D1491C0829E3
:100AA000F4D3581C082904D0521C9542EAD80B20D4
:100AB000F0BD1046F0BD0000380200202DE9F84FCF
:100AC000DFF890A100220AF1040B144601274FF031
:100AD0000F090BF1040E00BF0B6807FA04F52B4059
:100AE000AB4274D1DFF870C14E68A6EB0C086645C6
:100AF0002BD00DDC032E34D005DC36B3012E19D0FB
:100B0000022E2FD11BE0112E16D0122E2AD119E061
:100B1000B8F5881F19D006DCB8F5803F15D0B8F5B8
:100B2000801F1FD111E0B8F5001F0ED0B8F5041FCB
:100B300018D10AE0CA6815E0CA68121D12E0CA6836
:100B400008320FE0CA680C320CE08A682AB1012A28
:100B50004FF0080203D0456104E0042202E0056181
:100B600000E00022FF2B01D8064601E000F1040658
:100B70004FEA840501D9A5F12005D6F800C009FA8D
:100B800005F82CEA080C02FA05F54CEA050CC6F843
:100B900000C04D68ED0057D5304DAE6946F00106F6
:100BA000AE61AD6924F0030605F0010500952C4DFA
:100BB00006EB050CDCF80850A6074FEA167809FA90
:100BC00008F6B543274EB04202D1002610E03BE0C4
:100BD000254EB04201D101260AE0244EB04201D197
:100BE000022605E0224EB04201D1032600E0042691
:100BF00006FA08F62E43CCF808604D68DAF8006073
:100C0000ED03554601D51E4300E09E432E604D681E
:100C1000DBF80060AD035D4601D51E4300E09E4356
:100C20002E604D68DEF80060ED02754601D51E436A
:100C300000E09E432E604D68AD020E4D2E6801D53A
:100C40001E4300E09E432E60641C102CFFF444AF52
:100C5000BDE8F88F000401400000111000100240B0
:100C60000000014000080140000C0140001001405C
:100C7000001401400C0401400148806870470000E6
:100C8000200000200248816802781144816070478A
:100C900020000020074810B5016841F010010160F4
:100CA000032000F073F8002000F006F800F024F8AC
:100CB000002010BD0020024070B50D4D04464FF4D9
:100CC0007A712878B1FBF0F00A490968B1FBF0F0BD
:100CD00000F0FCFA48B9102C07D200222146501E21
:100CE00000F034F800206C6070BD012070BD000081
:100CF000200000202C0000200C4808B5816941F03C
:100D000001018161816901F001010091C16941F036
:100D10008051C161C06900F0805000900448416872
:100D200021F0E06141F00071416008BD0010024017
:100D30000000014000F01F020121914040098000A5
:100D400000F1E020C0F8001170470000F0B40E4B35
:100D50001B680C46C3F30223C3F10705042D00D919
:100D60000425191D072901D2002300E0DB1E0126FE
:100D700006FA05F1491E214099409E40761E164014
:100D80003143F0BC00F0A6BE0CED00E0064900F0D7
:100D9000070208684FF6FF03184040EA0220034AA2
:100DA00010430860704700000CED00E00000FA05F9
:100DB0002DE9F047DFF8548105460E46D8F80000CB
:100DC00000F00700B0420CD2D8F8001021F0070163
:100DD0003143C8F80010D8F8000000F00700B04216
:100DE0006FD128684A4C810712D5400703D5606847
:100DF00040F4E06060602878000703D5606840F444
:100E0000605060606068A96820F0F000084360608E
:100E10002878C00744D06868012816D021680228C5
:100E200016D0890700294CDA616821F003010143DB
:100E30006160FFF721FF6968074641F288300129A8
:100E40000ED00229814618D026E021688903E9E7FF
:100E50008901E7E7FFF710FFC11B494501D918E0F9
:100E600081466068C0F381000128F3D118E000BF1B
:100E7000FFF702FFC11B49450BD86068C0F3810032
:100E80000228F5D10CE000BFFFF7F6FEC11B494573
:100E900002D90320BDE8F087606810F00C0FF3D191
:100EA000D8F80010404601F00701B1420BD90168A3
:100EB00021F0070131430160006800F00700B042F3
:100EC00001D00120E6E72878400705D56068E96889
:100ED00020F4E060084360602878000706D5606869
:100EE000296920F4605040EAC100606000F036F8E3
:100EF0006168084AC1F30311515CC84006490860A3
:100F00000020FFF7D9FE0020C4E7000000200240C7
:100F100000100240773500082C00002004480549E5
:100F200000684968044AC1F30221515CC840704717
:100F30002C000020001002408735000804480549B5
:100F400000684968044AC1F3C221515CC840704737
:100F50002C000020001002408735000812A185B047
:100F60000FC98DE80F0014A0144A0068049051685E
:100F7000134801F00C03042B10D0082B0ED1C1F341
:100F80008343C9031DF803000AD5516804AAC1F3BD
:100F90004041515C0A4A5043B0FBF1F005B0704744
:100FA00008494843FAE70000020304050607080958
:100FB0000A0B0C0D0E0F1010010200000010024071
:100FC00000127A0000093D002DE9F84F0446007830
:100FD000B94DC00748D06868C0F38100012807D028
:100FE0006868C0F38100022809D16868C00306D58B
:100FF0002868800338D5606800286FD034E06068C6
:10100000B0F5803F0BD010B1B0F5A02F11D02868FB
:1010100020F480302860286820F4802002E02868CE
:1010200040F480302860606888B1FFF725FE0646EE
:1010300009E0286840F480202860F0E7FFF71CFEF4
:10104000801B642875D828688003F7D50CE0FFF76B
:1010500013FE064605E000BFFFF70EFE801B642866
:10106000F0D828688003F7D42078944E80074FF09A
:1010700001094FF000083BD5686810F00C0F07D04D
:101080006868C0F38100022809D16868C00306D4EB
:101090002868800714D5206901281FD110E0206935
:1010A000B0B1C6F80090FFF7E7FD074605E000BFC6
:1010B000FFF7E2FDC01B0228C4D828688007F7D5D7
:1010C0002868616920F0F80040EAC10028600FE05C
:1010D000C6F80080FFF7D0FD074606E0E9E000BF54
:1010E000FFF7CAFDC01B022823D828688007F7D461
:1010F000207800072CD57248A169D9B1C0F80090BA
:10110000FFF7BAFD074604E0FFF7B6FDC01B022853
:101110000FD8686A8007F7D56A484FF4FA5100681B
:10112000B0FBF1F0009000BF0098411E0091FAD290
:101130000EE080E0C0F80080FFF79EFD074604E067
:10114000FFF79AFDC01B022875D8686A8007F7D49C
:101150002078400760D5E8690027C00008D4E86916
:1011600040F08050E861E869012700F0805000906D
:1011700055480168C90513D40168834641F480715C
:101180000160FFF779FD824606E000BFFFF774FDBE
:10119000A0EB0A0064284ED8DBF80000C005F5D5A6
:1011A000E06801280AD008B1052813D0286A20F089
:1011B00001002862286A20F0040002E0286A40F05A
:1011C00001002862E06841F2883B98B1FFF754FDC6
:1011D00082460BE0286A40F004002862EEE700BF78
:1011E000FFF74AFDA0EB0A0159455AD8286A800743
:1011F000F6D50CE0FFF740FD824605E0FFF73CFD29
:10120000A0EB0A0159454CD8286A8007F6D41FB1D3
:10121000E86920F08050E861E06988B36968C1F34B
:101220008101022945D00228C6F8608004D0FFF76A
:1012300023FD044638E034E0FFF71EFD074604E0D6
:10124000FFF71AFDC01B02282BD828688001F7D4AD
:10125000206AB0F5803F05D16868A16820F40030AD
:1012600008436860D4E908010843696821F47411EF
:1012700008436860C6F86090FFF7FEFC044606E08D
:1012800015E000BFFFF7F8FC001B022809D828680A
:101290008001F7D50BE000BFFFF7EEFC001B022832
:1012A00002D90320BDE8F88F28688001F4D400201B
:1012B000F8E70120F6E7000000100240000042427B
:1012C000800442422C0000200070004010B5401EF7
:1012D000B0F1807F01D3012010BD4FF0E0246061A8
:1012E0000F21601700F0F6FB0020A06107202061AD
:1012F000002010BD7047704730B590F83C20012A9F
:1013000020D0012280F83C20022380F83D30036881
:101310005C6824F070045C6003685C680D682C43B2
:101320005C6003689C6824F080049C6003689C688F
:1013300049680C439C6080F83D20002180F83C10F7
:10134000084630BD022030BD10B5040003D094F82B
:101350003D0010B107E0012010BD002084F83C00E2
:10136000204600F00DF8022084F83D00211D206881
:1013700000F0E4FD012084F83D00002010BD0000D5
:1013800008B50068B0F1804F12D10A48C16941F038
:101390000101C161C069002200F001000090114606
:1013A0001C20FFF7D3FCBDE808401C20FFF7C2BC9F
:1013B00008BD0000001002400168CA6842F0010246
:1013C000CA600068016841F00101016000207047B7
:1013D00070B5044690F83C00012817D0012584F828
:1013E0003C50022084F83D002068826822F0770299
:1013F00022F47F4282600868502837D00DDC202814
:1014000059D005DC88B3102841D151E0022070BDCD
:10141000302853D040283AD13FE060282ED07028A1
:101420000BD0B0F5805F03D0B0F5005F2FD110E096
:101430002068816821F0070115E0CB68D1E901211E
:10144000206800F0B1FD2168886840F0770088606E
:101450001DE0CB68D1E90121206800F0A5FD2068DE
:10146000816841F48041816011E01EE0CA684968EA
:10147000206800F0ABFD5021206806E0CA6849688A
:10148000206800F0B4FD6021206800F097FD84F82A
:101490003D50002084F83C0070BDCA68496820684F
:1014A00000F094FD40212068EFE700212068ECE780
:1014B00010212068E9E720212068E6E73021206834
:1014C000E3E7704770B50446006801694FF0000516
:1014D000C943890715D4C168C943890711D4E91ED6
:1014E000016101202077206880698007204602D0B2
:1014F000FFF7E7FF04E000F098F8204600F096F8C8
:10150000257720680169C943490717D4C168C943D1
:10151000490713D46FF0040101610220207720688D
:10152000806910F4407F204602D0FFF7CAFF04E034
:1015300000F07BF8204600F079F8257720680169F3
:10154000C943090716D4C168C943090712D46FF00B
:1015500008010161042020772068C06980072046C7
:1015600002D0FFF7AEFF04E000F05FF8204600F085
:101570005DF8257720680169C943C90617D4C16899
:10158000C943C90613D46FF0100101610820207708
:101590002068C06910F4407F204602D0FFF791FF19
:1015A00004E000F042F8204600F040F8257720687B
:1015B0000169C943C90708D1C168C943C90704D132
:1015C000891E0161204600F033F820680169C94393
:1015D000090609D4C168C943090605D46FF0800122
:1015E00001612046FFF786FE20680169C94349066C
:1015F00009D4C168C943490605D46FF040010161AF
:10160000204600F01DF820680169C94389060BD403
:10161000C168C943890607D46FF0200101612046E3
:10162000BDE87040FFF767BE70BD704770470000AF
:1016300002484168491C41607047000000000020DA
:10164000704770B5040004D094F83900002510B13B
:1016500006E0012070BD84F83850204600F022F8E2
:10166000242084F839002068C16821F40051C16049
:10167000204600F0CFFC2068016921F4904101610F
:101680002068416921F02A0141612068C16841F464
:101690000051C160E563202084F8390084F83A00E5
:1016A000002070BD70B586B00024009401940294AF
:1016B0000394334E0368334902200322324DB34270
:1016C00029D18B6943F480438B618B6903F4804398
:1016D00004938B6943F004038B618969039201F0E1
:1016E000040104910102CDE9001069462846FFF784
:1016F000E5F92815CDE90004694628460294FFF76C
:10170000DDF9002211462520FFF720FB2520FFF7F9
:1017100011FB1E482CE01E4EB3422ED1CB6943F480
:101720000033CB61CB6903F4003304938B6943F03E
:1017300004038B618969039201F00401049104217F
:10174000CDE9001069462846FFF7B8F90820CDE931
:101750000004694628460294FFF7B0F900221146BA
:101760002620FFF7F3FA2620FFF7E4FA0748403077
:101770000068C16841F02001C16006B070BD000082
:10178000003801400010024000080140980100208C
:10179000004400402DE9F843044690F839001F4604
:1017A00016460D46202850D1A5B19EB194F83800B8
:1017B00001284AD0012084F838004FF00008C4F80E
:1017C0003C80212084F83900FFF756FAA684814630
:1017D000E68426E00120BDE8F883E08C401EE0842A
:1017E000A0684B46B0F5805F4FF000024FF08001DB
:1017F0002046009703D000F0C5FCE8B90DE000F0EA
:10180000C1FCC8B928882168C0F308004860206975
:1018100008B16D1C05E0AD1C03E0216815F8010B53
:101820004860E08C0028D8D14B4600224021204659
:10183000009700F0A7FC08B10320CCE7202084F833
:10184000390084F838800020C5E70220C3E7000093
:101850001F480246111D126890F88530126813B1B6
:10186000012B13D01BE0D36843F01003D360026850
:101870001268526890F884305A5490F88410491CC9
:1018800080F88410012180F8851008E0526890F8F3
:1018900084305A5490F88410491C80F884100268EF
:1018A0006FF0200112681160016809680A68D2436C
:1018B000D2060CD4CA6822F01002CA600168096816
:1018C000CA6822F02002CA60022180F885107047A1
:1018D000780000201F480246111D126890F88530DC
:1018E000126813B1012B13D01BE0D36843F010032F
:1018F000D36002681268526890F884305A5490F8A5
:101900008410491C80F88410012180F8851008E0BB
:10191000526890F884305A5490F88410491C80F82A
:10192000841002686FF02001126811600168096874
:101930000A68D243D2060CD4CA6822F01002CA60E8
:1019400001680968CA6822F02002CA60022180F892
:101950008510704708010020FEE702090A7000F0B8
:101960000F004870092A01D8303200E037320A707F
:10197000092801D8303000E037304870704770B522
:10198000002317E0C45C02EB4306240902F813406D
:10199000C55C092C05F00F05757001D8303400E0E6
:1019A000373402F81340092D01D8303500E03735BF
:1019B00075705B1C8B42E5D370BD00000D4808B507
:1019C000816941F010018161816901F0100100918C
:1019D000816941F020018161816901F0200100915C
:1019E000816941F004018161806900F00400009088
:1019F00008BD00000010024010B586B00024174852
:101A0000009401940294039404944FF0804105944F
:101A1000016047F6FF41C0E9011444F61F61C0E9C7
:101A200003148461FFF790FC08B1FFF721F84FF42D
:101A30008050009069460948FFF7CAFC08B1FFF7DB
:101A400017F8049404A905480594FFF755FC0028ED
:101A500001D0FFF70DF806B010BD000038000020DF
:101A60000C4810B50A4901604FF4E1314160002192
:101A700081600C22C160C0E904128161C161FFF77D
:101A8000E0FD002803D0BDE81040FEF7F1BF10BD17
:101A900000380140980100200C4810B50A49016047
:101AA0004FF4E1314160002181600C22C160C0E946
:101AB00004128161C161FFF7C4FD002803D0BDE8B5
:101AC0001040FEF7D5BF10BD00440040D8010020F3
:101AD000FEE770470907090E002806DA00F00F003C
:101AE00000F1E02080F8141D704700F1E02080F83C
:101AF0000014704710B5102001F022FA044632207D
:101B000001F01EFA206000206060A0603220E060DA
:101B1000204610BD38B50B4C8021201DFEF739FB47
:101B2000002084F8840021680968CA6842F0200215
:101B3000CA60216809680A684968009184F88500CC
:101B400038BD00007800002038B50B4C8021201DE6
:101B5000FEF71FFB002084F8840021680968CA682A
:101B600042F02002CA60216809680A684968009149
:101B700084F8850038BD0000080100202DE9F041FF
:101B80000D460646FFF7B6FF0446102100F06AFB3B
:101B90003046FEF713FB07462846FEF70FFB3918C1
:101BA00020460D3100F092FB0DA1204600F0ABFB6A
:101BB0000121204600F056FB4021204600F052FB58
:101BC0004FF49671204600F0B7FB3146204600F0F6
:101BD0009AFB2946204600F096FB2046BDE8F0819E
:101BE000454450002DE9F0471C4617460E46054671
:101BF000FFF780FF8146304601F0A2F88046FEF7ED
:101C0000DDFA064625B12846FEF7D8FA801C00E02A
:101C100000200CB1022100E000210844064480218C
:101C20004846361D00F01EFB3146484600F04EFB8C
:101C30000DB1802000E000200CB1402100E0002127
:101C40000143484600F00EFB1DB12946484600F00E
:101C50005AFB1CB12146484600F06EFBF9B24846DB
:101C600000F000FB4146484600F04DFB404601F0C5
:101C7000EDF84846BDE8F0872DE9F04114460E46E0
:101C80000546FFF737FF80463046FEF797FA0746CE
:101C90008021404600F0E6FA25B12846FEF78EFA8C
:101CA000801C00E000200CB1022100E0002108446B
:101CB000C1194046091D00F009FB0DB1802000E06C
:101CC00000200CB1402100E000210143404600F01B
:101CD000C9FA1DB12946404600F015FB1CB121464A
:101CE000404600F029FB0521404600F0BBFA314692
:101CF000404600F008FB4046BDE8F0817047000018
:101D000070B5134C94F8850002281FD12079114D2D
:101D10000126202804D040280ED0A02811D107E0A9
:101D20000D48696842680DA0904785F8306008E06A
:101D3000201D00F049F804E0002085F830000B4831
:101D40000670D4F88C00BDE87040004770BD0000FC
:101D50000801002038020020180200204F6E6C6934
:101D60006E655F44657669636500000000000020D1
:101D70007047000000B589B03A218DF804102C217D
:101D80008DF805108178009143780278C11C0DF11F
:101D9000060000F047FA002201A91046FFF76CFF89
:101DA0000890818864238AB201680648FFF7F2FC34
:101DB00008A8FEF7A7FD4FF4C870FEF793FD09B021
:101DC00000BD0000D8010020F0B400F12C0315483C
:101DD000FC21012501700E21417085700C26021D29
:101DE000C570002113F81140412C4FEA041401D3AF
:101DF000A4F55C74545403EB4104575C6478412CA3
:101E000001D3373C00E0303C27435754491CB142D2
:101E1000E8D305490D700549D1F88820F0BC1021A0
:101E200010470000280200201C000020780000203D
:101E3000F8B50E46054600F04DFF04463046FEF765
:101E4000E6FA00F035FF02462946204600F018FF6A
:101E50000023032221461846FFF7C4FE0090818824
:101E600064238AB201680748FFF794FC6846FEF7CE
:101E700049FD204600F036FF4FF4C870FEF732FDF2
:101E8000F8BD0000D801002002480168491C01602B
:101E9000FEF7F8BE0800002030B58FB02821684654
:101EA000FEF777F914210AA8FEF773F90121080457
:101EB000CDE900100024029402250491CDE90750D9
:101EC0004FF4E01009906846FFF77EF80F20CDE947
:101ED0000A056802CDE90C4002210AA80E94FEF71B
:101EE00067FF0FB030BD00000D48016841F00101EF
:101EF000016041680B4A1140416001680A4A114083
:101F00000160016821F480210160416821F4FE0133
:101F100041604FF41F0181600449C00308607047AD
:101F2000001002400000FFF8FFFFF6FE08ED00E0A1
:101F30000148FFF7C7BA000038000020F0B502687A
:101F4000164B174C174D4FF08047984205D0B842BA
:101F500003D0A04201D0A84203D122F070064A6803
:101F60003243984205D0B84203D0A04201D0A842E3
:101F700003D122F44074CA68224322F080044A69E3
:101F8000224302608A68C2620A688262984201D172
:101F90000969016301214161F0BD0000002C01408D
:101FA000000400400008004010B5846842EA0322A3
:101FB00024F47F440A432243826010BD826822F0E9
:101FC00070020A4342F007018160704710B5036A4E
:101FD000046A24F001040462846924F0F00444EAF1
:101FE000021423F00A020A438461026210BD10B594
:101FF000036A23F0100303628369046A23F47043C5
:1020000043EA023224F0A00343EA01118261016233
:1020100010BD00002DE9F041044600680169E26846
:1020200021F44051114301612169A06808436169AD
:1020300008432168CA6841F20C639A430243CA60AC
:1020400020684169A26921F44071114341614C4902
:1020500020686425322688423CD1FEF76FFF00EBF2
:10206000C00101EB001061688900B0FBF1F7FEF7D9
:1020700065FF00EBC00101EB00106168B04689000C
:10208000B0FBF1F0B0FBF5F06FF01801484307EB3F
:10209000800106EB0110B0FBF5F000F0F006FEF752
:1020A0004DFF00EBC00101EB001061688900B0FB3F
:1020B000F1F0B0FBF5F006EB0016FEF73FFF00EB8A
:1020C000C00101EB001061688900B0FBF1F7FEF779
:1020D00035FF3BE0FEF722FF00EBC00101EB0010F3
:1020E00061688900B0FBF1F7FEF718FF00EBC00153
:1020F00001EB00106168B0468900B0FBF1F0B0FB65
:10210000F5F06FF01801484307EB800106EB011072
:10211000B0FBF5F000F0F006FEF700FF00EBC001A9
:1021200001EB001061688900B0FBF1F0B0FBF5F045
:1021300006EB0016FEF7F2FE00EBC00101EB00100B
:1021400061688900B0FBF1F7FEF7E8FE00EBC00123
:1021500001EB001061688900B0FBF1F0B0FBF5F015
:102160006FF01801484307EB800108EB0110B0FB4A
:10217000F5F0216800F00F0030448860BDE8F08180
:10218000003801402DE9F041984617460E460446B6
:10219000069D1DE0681C1BD02DB1FEF76DFDA0EB68
:1021A0000800A84214D92068C16821F4D071C16028
:1021B0002068416921F001014161202084F8390043
:1021C00084F83A00002084F838000320BDE8F0814C
:1021D0002068006836EA000004D00020B842D9D058
:1021E0000020F3E70120F9E7FFF732BBFFF772BBEE
:1021F000FEE7000030B4044603480A462146006862
:1022000030BC0A23FFF7C6BA7800002030B4044679
:1022100003480A462146006830BC0A23FFF7BABAD1
:1022200008010020F0B51D4616460B46024600F197
:10223000100708211846059CFFF7A1FB3A2007F874
:10224000010B39463046FFF788FBBF1C394628464C
:10225000FFF783FBBF1C39462046FFF77EFB0020BB
:10226000B870F0BD70B5044680680D4608B1AFF394
:10227000008001212046FEF7C2FA10B14FF0FF3076
:1022800070BDD4E9000145546068401C60600020C6
:1022900070BD70B5044680680E46154608B1AFF3B0
:1022A000008011462046FEF7AAFA10B14FF0FF3029
:1022B00070BDD4E9000108442A463146FDF742FFCB
:1022C000606828446060002070BD000070B58368BD
:1022D0000022B3B901F07F03C909002902D000BF71
:1022E00043F08003D0E9006404F1010545603355F3
:1022F00002F1010201D0052AECDB052A01D0002001
:1023000070BDAFF3008070B5054680680E4608B119
:10231000AFF300800846FDF751FF84B221462846FE
:1023200000F00AF830B9224631462846FFF7B1FFDF
:10233000002800D0012070BD70B5054680680C46AD
:1023400008B1AFF30080210A2846FFF78BFF28B9B8
:10235000E1B22846FFF786FF002800D0012070BDBB
:102360000FB4084B10B504A902AA039800F0DEF8D8
:10237000044602A9002000F070FC204610BC5DF865
:1023800014FB00005B2C000802E008C8121F08C103
:10239000002AFAD170477047002001E001C1121FE6
:1023A000002AFBD1704700002DE9FF5F82B00021B9
:1023B000DDE90430020DDDF840B0034318D044F6E7
:1023C0001050A2F2FF3242431514119801281FD079
:1023D000A5EB0B00401C5FEA000A4FF000064E4FD1
:1023E000DFF83891B046504615D5CAF1000413E025
:1023F000119801244AA3012801D16FEA0B01029828
:10240000119AC0E90031C0E9024206B0BDE8F09F70
:10241000CBF10000DFE704460021404A491842EBB7
:102420000450CDE9001012E0E00707D032463B46E9
:1024300040464946FDF779FF8046894632463B468D
:1024400010461946FDF771FF06460F466410002C32
:10245000EAD1DDE90401DDE90023BAF1000F06DA73
:10246000FDF763FF42464B46FDF75FFF05E0FEF7D1
:10247000F4F842464B46FEF7F0F804460E460022BA
:10248000284BFEF70DF803D84FF0FF30014607E068
:102490000022254B20463146FDF7A0FEFEF74CF901
:1024A000102409E0002C0ADB0A220023FEF726F89C
:1024B000039B30321A55641E50EA0102F2D1641CAB
:1024C000039AC4F111031444119A012A03D0012282
:1024D00008430DD10AE0084304D000204FF0110B4F
:1024E000119072E7A3EB0B056D1E0DE05B4504DD5B
:1024F0004FF0000205F1010504E003DA4FF000029D
:10250000A5F10105002AECD002981199C0E9023129
:10251000C0E9004579E70000000014400000F03FEA
:10252000300000000000F0430000E03F2DE9FF4FC5
:1025300095B09B468946064600250FE2252877D1AF
:1025400000242746F84A0121059400E0044316F8C8
:10255000013F203B01FA03F01042F7D130782A28DE
:1025600011D06FF02F033078A0F13002092A16D86D
:10257000059A44F0020402EB820203EB420210448B
:10258000761C0590EFE759F8042B0592002A03DA30
:10259000504244F40054059044F00204761C307814
:1025A0002E2816D116F8010F44F004042A280DD065
:1025B0006FF02F023078A0F13003092B09D807EB18
:1025C000870302EB4303C718761CF3E759F8047B33
:1025D000761C30786C280FD006DC4C2817D0682881
:1025E0000DD06A2814D104E0742810D07A280FD1B5
:1025F0000DE044F400140AE044F4801401E044F4D3
:1026000040147278824202D104F58014761C761C44
:10261000307866280BD013DC582877D009DC0028E6
:1026200075D04528F6D04628F4D047281AD19DE128
:1026300018E0632835D0642879D0652812D195E157
:10264000702873D008DC6728F1D069286FD06E2815
:102650000DD06F2806D1B5E073282CD0752875D021
:10266000782874D05A46179990476D1C75E1C4F3C9
:102670000250022809D003280DD0D9F800100428F0
:102680000DD00D6009F1040967E1D9F80010EA17CF
:10269000C1E90052F6E7D9F800100D80F2E70D709D
:1026A000F0E719F8041B8DF8001000208DF80100E8
:1026B000EA46012003E059F804AB4FF0FF30610710
:1026C0004FF0000102D40DE008F101018846B94243
:1026D0000FDA8045F8DB1AF808100029F4D108E079
:1026E00008F1010188468142FADB1AF80810002936
:1026F000F6D105985B46A0EB080721463846179AA5
:1027000000F094FA284400EB080507E04DE029E1C9
:102710000DE01AF8010B5A4617999047B8F10108D5
:10272000F7D25B4621463846179A13E142E00A2267
:102730000092C4F302524FF0000A022A08D059F85E
:1027400004CB032A4FEAEC710AD00DE029E02AE01D
:1027500009F1070121F00702F2E802C1914609E000
:102760000FFA8CFC4FEAEC71042A03D14FFA8CFC6F
:102770004FEAEC71002907DA0A460021DCF1000C6F
:1027800061EB02012D2202E0220504D52B228DF8F7
:102790000420012203E0E20701D02022F7E790465F
:1027A00059E00A2102E010220DE010214FF0000A4A
:1027B00000910BE010224FF0000A44F004040827B7
:1027C000009203E008224FF0000A0092C4F3025284
:1027D000022A05D059F804CB0021032A08D009E0C9
:1027E00009F1070121F00702F2E802C1914605E074
:1027F0001FFA8CFC042A01D10CF0FF0C4FF00008EA
:10280000220728D5702806D0009B83F0100353EAD6
:102810000A0305D00EE040228DF80420012208E0D2
:102820005CEA010206D030228DF804208DF8050004
:1028300002229046009B83F0080353EA0A030AD160
:102840005CEA010201D1620705D530228DF804202F
:102850004FF001087F1E582804D034A003900EA822
:1028600002900DE036A0F9E753466046009AFDF766
:1028700045FE84460398825C0298401E02900270D6
:102880005CEA0100F0D1029806A9081A00F1200ABA
:10289000600702D524F4803400E00127574502DDAB
:1028A000A7EB0A0000E0002000EB0A010090059869
:1028B0004144401A0590E00306D45B462146179A2E
:1028C000059800F0B3F90544002706E001A85A4630
:1028D000C05D179990476D1C7F1C4745F6DBE003F0
:1028E0000CD55B462146179A059800F09FF90544E0
:1028F00004E030205A46179990476D1C0099481EF5
:1029000000900029F5DC08E0029802995A46007808
:10291000491C0291179990476D1CBAF10001AAF168
:10292000010AF1DC65E10000092801003031323391
:1029300034353637383961626364656600000000FB
:1029400030313233343536373839414243444546E5
:102950000000000000F058F90544761C307800288B
:102960007FF4ECAD19B02846BDE8F08F620700D4C3
:10297000062709F1070222F0070CFCE80223E146D2
:1029800003F000485FEA080C02D00FF2702C0DE053
:102990005FEA045C02D50FF2682C07E05FEAC47CB2
:1029A00002D00FF2602C01E0AFF2700C4FF0FF3854
:1029B00023F00043CDF850C065280CD006DC452834
:1029C00009D046281DD047283DD13DE0662818D0C3
:1029D00067287ED138E00021112F01DB112000E0B3
:1029E000781CCDE9000106A90EA8FFF7DDFCDDE9A2
:1029F0000F010E9A03910021009207F1010A049140
:102A00004DE04FF000400097CDE9011006A90EA857
:102A1000FFF7CAFCDDE90F0203920E9B1199002219
:102A2000DDF80CA00093049211B9791C00EB010AA7
:102A3000B7EB0A0004D4C0F1FF3007F1010A04909B
:102A4000AAEB0700019044E0012F00DA01270021E2
:102A5000112F01DD112000E03846CDE9000106A963
:102A60000EA8FFF7A1FCDDE90F010E9A03910021EA
:102A700004910092BA4621070CD40399514500DA1B
:102A80008A46BAF1010F05DD009AAAF10101515CF5
:102A9000302908D0B84202DA10F1040F06DA012119
:102AA000CDE9011015E0AAF10101E9E7002805DCF4
:102AB000049901440491AAEB000102E0411C514534
:102AC00000DD8A460499401A401C01904FF00040F6
:102AD0000290200704D40198504501DBCDF8048012
:102AE00000208DF84F0002980DF14F07B0F1004F14
:102AF00025D02B200E9002984FF0020800280CDA07
:102B0000404202902D200E9007E00A210298FDF726
:102B1000DFFC3031029007F8011DB8F10001A8F187
:102B20000108F2DC02980028EFD1791E0E98087097
:102B3000307800F0200040F0450007F8020D12A8A0
:102B4000C01B00F107081498007800B1012000EBC9
:102B50000A01019801EBE07105984144401A401EBA
:102B60000590E00306D45B462146179A059800F0CD
:102B70005DF805441498007818B15A4617999047A3
:102B80006D1CE00324D55B462146179A059800F09A
:102B90004DF805441CE00498002807DBDDE903013B
:102BA000884203DD0098405C179901E017993020B6
:102BB0005A469047049805F10105401C049001987D
:102BC000401E019004D12E205A46179990476D1C43
:102BD000BAF10001AAF1010ADDDC05E017F8010BEA
:102BE0005A46179990476D1CB8F10001A8F10108E9
:102BF000F4DC5B462146179A0598ABE62D000000F1
:102C00002B000000200000002DE9F04104460025C3
:102C10001E461746880404D405E039462020B047F4
:102C20006D1C641EF9D52846BDE8F0812DE9F04100
:102C3000044600251E469046C80301D5302700E013
:102C40002027880404D505E041463846B0476D1C6E
:102C5000641EF9D52846BDE8F0810A68531C0B6054
:102C6000107070478268002901D01AB981607047DE
:102C7000020002D010680028FAD111604A60704743
:102C800070B514000D4606460ED0206A10B10749F3
:102C900049688847284600F057F8206221463046A8
:102CA000BDE87040FFF7DEBF70BD00000C000020E3
:102CB00070B505460E4600F035F8040008D0032034
:102CC000E060C4E9065628463146FDF7B1FB606175
:102CD000204670BD10B500F025F8002801D006216F
:102CE000C16010BD70B504460D4E16E0A089256880
:102CF000C0050AD4A06820B1FFF7F4FFA089C00581
:102D000003D4206908B171688847206A08B17168E6
:102D100088477168204688472C46002CE6D170BD54
:102D20000C000020054910B50968282088470400D8
:102D300002D02821FDF72DFA204610BD0C000020FE
:102D40000122002100F0CEBB70B50646FDF736FA31
:102D50000649401C044609688847051E04D02246DF
:102D60003146FDF7EFF9284670BD00000C00002049
:102D70002DE9F041C1F30A52A2F2FF362F4A304B3F
:102D80000D460446142E2FDA002E12DAFDF726FA2D
:102D900000221346FDF784FB4CD2002DA4BF002473
:102DA000254647DA25F00040204318BF254D41D085
:102DB00018E0DFF894C02CFA06F705EA070C5CEA85
:102DC000040C08BFBDE8F081FDF708FA00221346A5
:102DD000FDF766FB2ED2002D03DA4FF48010F04091
:102DE0000544BD43002425E0332EC8BFBDE8F08173
:102DF000A6F1140C4FF0FF3727FA0CF73C4208BF3E
:102E0000BDE8F081FDF78EFA00221346FDF748FB7E
:102E100010D2002D0DDA142E08BF6D1C09D0C6F19A
:102E20003400012101FA00F02044A04238BF6D1C9B
:102E30000446BC4329462046BDE8F0819C750088C5
:102E40003CE4377E0000F0BFFFFF0F0010B5002804
:102E500021D0114B0022001F196803E0814203D8E2
:102E60000A4649680029F9D152B11368841A9C4274
:102E700004D1006818441060104602E0506000E081
:102E8000186039B102680B1A934203D10B681A44D7
:102E900002604968416010BD30000020FDF7FAFE75
:102EA000FEF7FAFFFEF78AFDFEF7A6FDFEF7D8FD56
:102EB000FEF7F2FDFDF76AFCFDF730FD184E194DE7
:102EC000194C0127F068804728688047207828B38C
:102ED000012803D0022814D0002010E095F830001B
:102EE0000028EFD1114841F288320168B1FBF2F0BD
:102EF00002FB10100028E5D13068804702202070C6
:102F0000E0E795F8300048B161680629DADB01286E
:102F1000D8D17268696806A09047D3E72770D1E7D7
:102F200018020020380200200000002008000020C5
:102F30004F6E6C696E655F4465766963650000007D
:102F4000F0B50B30154D20F007010024144A0FE0B6
:102F500003688B420BD38B4205D95E1A431847682E
:102F6000C3E9006700E04368136002C004E0021D8B
:102F700010680028ECD12046002802D1286808B14A
:102F80000020F0BD064A07481060074A121A22F0D6
:102F90000702C0E9002401202860D7E734000020A0
:102FA0003000002074020020700400202DE9F74F4B
:102FB000002581464FF0050B8068A8462E4601E0AB
:102FC00000686D1C0028FBD1414A11685DB1A80062
:102FD000044692468847071E0DD02146FDF7D9F8D2
:102FE000D9F8084022E003208847040002D039A124
:102FF000FDF7EBF82046BDE8FE8F00BFDDE90112CA
:103000002046491C00F06EFA47F8280008F1010834
:1030100050B1FDF7D3F8029901B10121014401EB50
:103020000B0000F1020B00E00126246814B1002E11
:10303000E4D012E08EB9DAF80010584688475FEA0B
:1030400000080AD05B214FF0000988F8001008F151
:10305000010488F801904E462DE00024564605E014
:1030600057F8240008B171688847641CAC42F7DB4C
:103070007168384688470020BDE700BF57F8261022
:103080002046FDF7A2F857F82600FDF797F804440C
:10309000681E864209D02C2004F8010B029810B15A
:1030A000202004F8010B84F80090DAF8041057F897
:1030B00026008847761CAE42E0DBDAF8041038467A
:1030C00088475D20207084F80190404693E7000017
:1030D0000C0000205B5D00002DE9F0410646344FF6
:1030E000D6E90643DFF8CC801D464069FDF78FF92D
:1030F00022462B46FDF713F921F0004100224346FA
:10310000FDF7B6F917D82C4A2C4B20462946FDF777
:10311000AFF910D800222A4B20462946FDF7C0F906
:1031200009D839681520884707003ED025A1726963
:10313000FFF716F939E0396840208847070034D096
:1031400020462946FFF714FE22462B46FDF7E7F8F6
:1031500021F0004100224346FDF78AF90BD82046B2
:1031600025F00041184A194BFDF782F903D2224697
:103170002B4617A116E025F0004120460E46164AC0
:10318000164BFDF775F906D3204631460022144B45
:10319000FDF786F903D222462B4612A102E0224611
:1031A0002B4611A13846FFF7DBF83846BDE8F08121
:1031B0000C0000200000B03C0000C0FFFFFFDF411A
:1031C0000000E0C12564000044F3C2E4E4E9634C7C
:1031D000252E3066000000008DEDB5A0F7C6B03E8C
:1031E00065CDCD4125650000256600002DE9FE4F27
:1031F000054607204FF0000B0090A86816468A4647
:103200005F46CDF808B001E000687F1C0028FBD1C4
:103210007A490A68E7B1B800044690475FEA0009B6
:1032200035D076492046096888475FEA000830D0E3
:1032300021464846FCF7ADFF21464046FCF7A9FF72
:10324000AC680AF1010AEEB30098504400904FE0D8
:1032500016B10AF1040000E003209047002814D0C2
:103260007B210170411C66B10A2201F8012B00226A
:103270000924AAF1010302E001F8014B521C9A4211
:10328000FADB7D220A7000224A70BDE8FE8F002022
:10329000FBE75A494846496858E0206A00F0B0F810
:1032A000019048F82B0032465146204600F01AF9AA
:1032B000014649F82B0001980BF1010BA8B1A1B10F
:1032C000084600E014E0FCF779FF05460198FCF79A
:1032D00075FF291816B10AF1020000E00020014430
:1032E00000980844801C009001E0012002902468AE
:1032F000002CD2D1029898B94049009809688847B3
:103300005FEA000B0CD07B218BF800100BF101045D
:1033100016B10A2004F8010B00202070054652E087
:103320000024364D0BE000BF58F8240008B169684E
:10333000884759F8240008B169688847641CBC4272
:10334000F2DB6968404688476968484688479EE7D7
:103350003EB10020092102E004F8011B401C504549
:10336000FADB58F825102046FCF72FFF58F8250007
:10337000FCF724FF04443A2004F8010B16B109209D
:1033800004F8010B59F825102046FCF71EFF59F8E8
:103390002500FCF713FF0444781E854202D02C2040
:1033A00004F8010B16B10A2004F8010B13490020A0
:1033B0002070496858F825008847104959F82500B9
:1033C000496888476D1CBD42C2DB0C4D40466968A8
:1033D00088476968484688474EB100200922AAF10B
:1033E000010102E004F8012B401C8842FADB7D2039
:1033F000207000206070584647E700000C00002055
:103400002DE9F04104004FF0000501D006460FE021
:10341000BDE8F0412DA0FFF797BC39462CA0FCF782
:10342000C3FE08B16D1C02E0202F00D26D1D761C7A
:1034300037780FB16D1CF0D12749E81C096888471F
:10344000051E2FD022260670681C4FF05C0823E072
:103450001F2907D9222905D05C2903D000F8011BB8
:10346000641C19E000F8018B14F8012B4146074653
:103470000C2A20D006DC082A1BD0092A21D00A2ACF
:1034800006D11AE00D2A1AD0222A0FD05C2A0BD0BE
:1034900012A1FEF765FF781D21780029D8D10670AA
:1034A00041702846BDE8F081397000E03E70401C54
:1034B000F2E7622006E0662004E06E2002E072205F
:1034C00000E074203870781CE6E70000000000007F
:1034D000225C080C0A0D09000C0000207525303410
:1034E0007800000030B403004FF0000008D01C7BCF
:1034F000072C06D2DFE804F0090B070F13171B0097
:10350000002030BC70470CA002E00DA000E00EA02F
:1035100030BCFFF719BC30BC1846FFF7DDBD186999
:1035200030BCFFF76DBF30BC1846FFF73FBD30BC65
:103530001846FFF75BBE00006E756C6C0000000063
:1035400066616C73650000007472756500000000B0
:10355000353033323233333939003261723D3079AC
:103560007A6E55716F4C5449773674345032664FC9
:103570004970726F673D000000000000000000010C
:10358000020304060708090000000001020304000A
:10359000B035000800000020380000008823000833
:1035A000E83500083800002038080000982300089B
:1035B000000000000000000000000000412F000893
:1035C0004D2E000800000000000000000000000078
:1035D00001000000100000000000000000A24A04EA
:0835E0000000000000000000E3
:04000005080000ED02
:00000001FF
